:020000040800F2
:1000000030300020DD0100083D0B00086D0A0008BB
:100010003B0B0008C50900089D0F00080000000008
:100020000000000000000000000000004501000882
:10003000C70900080000000089010008850D0008BC
:10004000F7010008F7010008F7010008F7010008B0
:10005000F7010008F7010008F7010008F7010008A0
:10006000F7010008F7010008F7010008F701000890
:10007000F7010008F7010008F7010008F701000880
:10008000F7010008F7010008F7010008F701000870
:10009000F7010008F7010008F7010008F701000860
:1000A000F7010008F7010008F7010008F701000850
:1000B000F7010008F7010008F7010008F701000840
:1000C000F7010008F7010008F7010008F701000830
:1000D000F7010008F7010008F7010008F701000820
:1000E000F7010008F7010008F7010008F701000810
:1000F000F7010008F7010008F7010008F701000800
:10010000F7010008F7010008F7010008F7010008EF
:10011000F7010008F7010008F7010008F7010008DF
:10012000F7010008F7010008F7010008F7010008CF
:10013000DFF80CD000F02AFB00480047D518000873
:1001400030300020224B19680868B0E8F00F80F3C7
:100150000988BFF36F8F4FF0000080F311884EF0D5
:100160000D0E70470000000006480068006880F32C
:10017000088862B661B6BFF34F8FBFF36F8F00DFA1
:1001800000BF00BF08ED00E0EFF30980BFF36F8F01
:100190000F4B1A6820E9F00F106008B54FF05000BF
:1001A00080F31188BFF34F8FBFF36F8F02F0CCFB4A
:1001B0004FF0000080F31188BDE808401968086816
:1001C000B0E8F00F80F30988BFF36F8F704700BF6E
:1001D0002C000020EFF305807047000006488047A0
:1001E00006480047FEE7FEE7FEE7FEE7FEE7FEE71C
:1001F000FEE7FEE7FEE7FEE7990D00083101000883
:1002000040EA01039B0703D009E008C9121F08C098
:10021000042AFAD203E011F8013B00F8013B521E18
:10022000F9D27047D2B201E000F8012B491EFBD28F
:1002300070470022F6E710B513460A4604461946F1
:10024000FFF7F0FF204610BDF0B480EA0102D40FA2
:100250004200B2EB410F02D20246084611464A0064
:1002600042D0C30DDDB2C1F3C752AD1A202D35DA2D
:10027000C1F3160141F4000204B15242C5F1200657
:1002800002FA06F12A411044B3EBD05F23D0C4B187
:10029000012DA0EBC35009DCF0BC4FF0004202EA94
:1002A000C352DBB200F5000000F089B8400000F155
:1002B000807000EBC350A0F1807040EAD17049001B
:1002C00009E0490841EAC071A0EBC35000F5000005
:1002D000400800EBC350F0BC00F068B86142012256
:1002E00002EB4101001BF6E7F0BC704781F00041D2
:1002F000AAE780F00040A7E700F0004230F000409D
:100300000AD0C10D01F56071C0F3160042EA015137
:10031000C20840071143704700200146704730B5BE
:100320000B46014600202022012409E021FA02F5B3
:100330009D4205D303FA02F5491B04FA02F528444D
:10034000151EA2F10102F1DC30BD2DE9F05F05467A
:10035000002092469B4688460646814640241BE084
:10036000284641464746224600F031FA53465A464F
:10037000C01A914110D311461846224600F018FACF
:100380002D1A67EB01084F4622460120002100F09C
:100390000FFA17EB00094E41201EA4F10104DFDC27
:1003A000484631462A464346BDE8F09F0029A8BF8B
:1003B0007047401C490008BF20F00100704710B48E
:1003C000B0FA80FC00FA0CF050EA010404BF10BC43
:1003D000704749B1CCF1200421FA04F411FA0CF170
:1003E00018BF012121430843A3EB0C01CB1D4FEAA9
:1003F00000614FEA102042BF002010BC704700EBA4
:10040000C35010440029A4BF10BC7047401C4900D1
:1004100008BF20F0010010BC70472DE9FE4F804658
:1004200081EA0300C00F0C46009021F0004123F048
:100430000045B8EB0200A94105D24046214690464E
:100440001C460B46024623F00040104347D0270DC0
:10045000C7F30A00C3F30A510290401A01904028E2
:100460006BDAC3F3130040F4801B0098924620B16E
:100470000023D2EB030A63EB0B0B01985946C0F142
:100480004002504600F094F906460D465046594643
:10049000019A00F0ACF910EB08006141002487EAF2
:1004A000115284EAE7731A4340D0009A62B3019A6A
:1004B000012A4FEA075215DC001B61EB02014FF0E5
:1004C000004202EA0752CDE90042001C41F58011CA
:1004D00032462B4600F0ACF903B0BDE8F08F404641
:1004E0002146F9E7001B61EB0201001C41F5801376
:1004F00000185B412018A2F5001747EB030140EA02
:10050000D570B6196D4111E06D084FEA360645EA1F
:10051000C0754FEA0752001B61EB0201001C41F558
:10052000801149084FEA30000019514132462B46EC
:1005300003B0BDE8F04F00F06CB900980122400014
:100540000023D0EB020263EBE073009821464FEAF0
:10055000E074B8EB000061EB0401E9E783F00043CD
:100560005BE781F0004158E72DE9FE4F81EA030483
:1005700004F0004421F0004100944FF0000B23F000
:10058000004350EA01045ED052EA03045BD0C3F397
:100590000A54C1F30A552C44A4F2F3340194A0FB8D
:1005A0000254C1F3130141F48011C3F3130343F464
:1005B000801301FB024400FB034E840A970A44EABD
:1005C000815447EA8357A4FB076802958D0A05FB0F
:1005D00007854FEA932C04FB0C542705029D4FEA34
:1005E000065847EA1637B5EB08056EEB070C870E81
:1005F000920E47EA811742EA8312A7FB0201B6EB8B
:100600000B0164EB00042B0D43EA0C335E1844EB42
:100610001C50DA465146E7FB0201C5F313044FEACA
:100620000B3343EA14534FEA0432019C43EA0603B6
:10063000A4F10C040294009CCDE900B400F0F8F899
:1006400003B0BDE8F08F00200146F9E72DE9F04D39
:1006500081EA030404F0004B21F0004514464FF0FA
:10066000000A23F0004150EA050220D054EA0102BA
:100670001DD0C5F30A570246C5F31303C1F3130097
:10068000C1F30A5640F4801543F48013A7EB060823
:10069000101BD64608F2FD3873EB050002D308F1B3
:1006A000010801E092185B41B8F1000F03DA002065
:1006B0000146BDE8F08D00204FF4801106468446C7
:1006C0000EE0171B73EB050705D3121B63EB050345
:1006D00006434CEA010C49084FEA300092185B418E
:1006E00050EA0107EDD152EA030012D082EA040079
:1006F00083EA0501084305D0101BAB4106D2012255
:10070000002306E000224FF0004302E06FF00102F8
:1007100053101AEB06004CEB085110EB0A0041EBAA
:100720000B01BDE8F04D00F074B8C1F30A52C1F3FB
:10073000130140F2FF3341F480119A4202DA0020A3
:100740000146704740F233439A42A2F2334202DC40
:10075000524200F03CB800F02BB8000030B5041E47
:1007600071F1000404DB4FF00044404264EB0101EE
:10077000141E73F1000405DB1C464FF00043524287
:1007800063EB0403994208BF904230BD064C074D0D
:1007900006E0E06840F0010394E807009847103451
:1007A000AC42F6D3FFF7C8FC10350008303500081E
:1007B000202A04DB203A00FA02F100207047914021
:1007C000C2F1200320FA03F3194390407047202A16
:1007D00004DB203A21FA02F00021704721FA02F3EB
:1007E000D040C2F120029140084319467047202AA8
:1007F00006DBCB17203A41FA02F043EAE07306E049
:1008000041FA02F3D040C2F1200291400843194658
:10081000704710B5141E73F1000408DA401C41F152
:10082000000192185B411A4301D120F0010010BD74
:100830002DE9F04D92469B4611B1B1FA81F202E0EA
:10084000B0FA80F220329046FFF7B2FF04460F461E
:1008500040EA0A0041EA0B0153465A46084313D0C6
:10086000114653EA010019D0C8F140025046FFF783
:10087000AEFF05460E46504659464246FFF798FFE2
:10088000084305D0012004E020463946BDE8F08D3C
:100890000020054346EAE0762C4337430A98630577
:1008A000E40AA0EB08000022FD0A44EA47540A309B
:1008B00002D500200146E9E7010510196941DDE98B
:1008C000084500196941BDE8F04DA2E770B500F098
:1008D0005DF800F00DFB00F0E7F800F0C9F8184CE7
:1008E00014A0002120601748606002200502C4E9BE
:1008F0000205204600F053FB206110B112A000F069
:100900006DFB0F4C16A01434002120601748606066
:100910000320C4E90205204600F041FB206110B12C
:1009200013A000F05BFB064814380069BDE8704076
:1009300000F04EBB4D61696E5F5461736B00000047
:10094000B80000201D0B0008B4B4BDA84C45445F9E
:100950005461736BC8CECEF1B3C9B9A6210D0A009C
:100960005365636F6E645F5461736B00790C0008AC
:10097000B4B4BDA85365636F6E645F5461736BC894
:10098000CECEF1B3C9B9A6210D0A000038B50121B8
:10099000202000F01BF94FF40064ADF80040102057
:1009A0008DF803000320064D8DF8020069462846A5
:1009B00000F00AF82146284600F056F838BD00003D
:1009C00000140140FEE77047F0B5CC78002204F037
:1009D0000F03E40601D58C7823430C784FF00F0CFD
:1009E00014F0FF0F4FF0010E1BD005680E880EFAB1
:1009F00002F42640A64210D196000CFA06F725EA2A
:100A0000070703FA06F5CE783D43282E02D0482E7C
:100A100002D002E0446100E00461521C082AE5D3E0
:100A200005600A88FF2A1CD94468002202F10806E2
:100A30000EFA06F50E882E40AE420ED196000CFA44
:100A400006F7BC4303FA06F7CE783C43282E00D1C4
:100A50004561CE78482E00D10561521C082AE5D3A5
:100A60004460F0BD4161704701617047FEE70000DE
:100A700038B50121102000F0A9F80120ADF80000E0
:100A8000084D48248DF8034069462846FFF79CFF2F
:100A90000221ADF800108DF8034069462846FFF7A3
:100AA00093FF38BD00100140F8B50121202000F06F
:100AB0008DF84FF48055ADF8005010240C4F8DF890
:100AC000034003268DF8026069463846FFF77CFF35
:100AD0006002ADF800008DF803408DF802606946B1
:100AE0003846FFF771FF29463846FFF7BDFFF8BDCE
:100AF00000140140024931F810100248FFF7B4BF5A
:100B00000C35000800140140024931F81010024869
:100B1000FFF7A8BF0C350008001401404FF44874DB
:100B20000020FFF7F1FFC82001F05CFD0020FFF777
:100B3000E1FF204601F056FDF2E7FEE770470000B6
:100B400030B50F23C27801780125F2B1144A12683A
:100B500001F1E02102F4E062C2F5E062120AC2F1A2
:100B60000404D3404278A24084781C4014432201FC
:100B700081F80024007800F01F018D4040098000BA
:100B800000F1E020C0F8005130BD01F01F008540A9
:100B90004809800000F1E020C0F8805130BD00001D
:100BA0000CED00E00249084302490860704700006C
:100BB0000000FA050CED00E0024A11400143024832
:100BC0000160704780FFFF1F08ED00E0044A002924
:100BD000916901D0014300E08143916170470000B9
:100BE0000010024030B5204A5168204B11F00C0132
:100BF00003D0042901D0082901D0036012E0516814
:100C0000536801F470114FF0020413F4803F04EBB9
:100C1000914102D053689B0301D5154B00E0134B63
:100C20005943016051680F2303EA1111114B5C5CB9
:100C30000168E14041605468072505EA14241C5D01
:100C400021FA04F48460546805EAD4241B5DD94079
:100C5000C1605268032303EA9232064B1B1F9A5C61
:100C6000B1FBF2F1016130BD0010024000127A00C8
:100C700000093D001C000020104E114C4FF47A7505
:100C80000120FFF741FF31462068FFF7DDFA2060C1
:100C900001F062FB2068FFF72FFB02460B4609A01C
:100CA00000F09CF901F094FB284601F09BFC012028
:100CB000FFF720FF284601F095FCE1E70AD7233C27
:100CC00000000020666C6F61745F6E756DB5C4D6F0
:100CD000B5CEAA3A20252E34660D0A000CB50022A6
:100CE000264800920192016841F4803101604FF47E
:100CF000A063016801F4003101910099491C009141
:100D0000019911B900999942F3D10168890333D54A
:100D1000012101911A490A6842F010020A600A682A
:100D200022F003020A600A6842F002020A60416887
:100D3000416041684160416841F4806141604168BF
:100D400021F47C114160416841F4E811416001687F
:100D500041F08071016001688901FCD5416821F092
:100D600003014160416841F0020141604168C1F303
:100D700081010229FAD10CBD01920CBD0010024084
:100D80000020024010B502F065F9012803D0BDE84B
:100D9000104001F053BE10BD0F4810B5016841F07E
:100DA0000101016041680D4A1140416001680C4A2F
:100DB00011400160016821F480210160416821F443
:100DC000FE0141604FF41F018160FFF787FF054975
:100DD0004FF00060086010BD001002400000FFF8F6
:100DE000FFFFF6FE08ED00E00029818902D041F402
:100DF000005101E021F4005181817047024600203A
:100E000012880A4200D00120704710B5C1F3421386
:100E100001F01F040121A140012B07D0022B07D0B4
:100E20001430002A026805D00A4304E00C30F8E7C9
:100E30001030F6E78A43026010BD000030B504466A
:100E4000008A85B00D464CF6FF710840E9880143E1
:100E50002182A0894EF6F3110840A9882A891143FE
:100E60006A8902431143A181A08A4FF6FF410840DD
:100E7000A9890143A1826846FFF7B4FE194884425C
:100E800001D1039800E00298A189090400EBC00198
:100E900001EB0010296801D5490000E08900B0FB92
:100EA000F1F06422B0FBF2F109010B096FF01805B3
:100EB0006B4300EB8300A3891D044FF0320306D57A
:100EC00003EBC000B0FBF2F000F0070005E003EB1D
:100ED0000010B0FBF2F000F00F000843208105B0D5
:100EE00030BD000000380140C1F308018180704727
:100EF00030B587B001210420FFF768FE0121880387
:100F0000FFF764FE4FF40070ADF8100018208DF864
:100F1000130003201F4C8DF8120004A92046FFF790
:100F200053FD2115ADF8101004218DF8131004A9FC
:100F30002046FFF749FD00244FF4E1300090ADF862
:100F400008400C20144DADF80440ADF80A00ADF88F
:100F50000640ADF80C4069462846FFF76FFF252193
:100F60008DF814100F208DF815008DF81640012013
:100F70008DF8170005A8FFF7E3FD012240F2255187
:100F80002846FFF742FF01212846FFF72DFF07B053
:100F900030BD00000008014000380140FEE73EB5CA
:100FA0000D46044601F0D8F902A9A068CDE9000178
:100FB000A0892B4682B2D4E9001002F01FF8044643
:100FC00001F006FA012C01D000203EBD02983EBD82
:100FD00010B508B101F03CFB002010BD0FB4054B6B
:100FE00010B503A9044A029800F0CAF810BC5DF8D5
:100FF00014FB0000B1180008A000002002E008C89F
:10100000121F08C1002AFAD170477047002001E082
:1010100001C1121F002AFBD1704700002DE9FF5FBC
:10102000DDE90220010DDDF838B0024318D044F6A6
:101030001050A1F2FF3141430D140F98012820D028
:10104000A5EB0B00401C5FEA000A4FF00004474E7E
:10105000DFF81C91A046504616D5CAF1000728E0DB
:101060000F98012443A2012808D0002100980F9B6B
:10107000C0E90021C0E90243BDE8FF9F6FEA0B0110
:10108000F4E7CBF10000DEE7074612E0F80707D0EF
:101090002246334640464946FFF766FA804689466F
:1010A0002246334610461946FFF75EFA04460E46BE
:1010B0007F10002FEAD1DDE90201BAF1000F4246AC
:1010C0004B4602DAFFF750FA01E0FFF7BFFA044699
:1010D0000E460022284BFFF741FB03D84FF0FF30AC
:1010E000014607E00022254B20463146FFF795F9DF
:1010F000FFF71BFB102409E0002C0ADB0A22002367
:10110000FFF723F9019B30321A55641E50EA0102A1
:10111000F2D1641C019AC4F1110314440F9A012AFC
:1011200003D0012208430DD10AE0084304D0002077
:101130004FF0110B0F9080E7A3EB0B056D1E0DE038
:101140005B4504DD4FF0000205F1010504E003DA20
:101150004FF00002A5F10105002AECD000980F998C
:10116000C0E90231C0E9004586E7000000002440E4
:101170000000F03F300000000000F0430000E03FBE
:101180002DE9FF4F95B09B468946064600250FE2A4
:10119000252877D100242746F84A0121059400E04C
:1011A000044316F8013F203B01FA03F01042F7D147
:1011B00030782A2811D06FF02F033078A0F1300258
:1011C000092A16D8059A44F0020402EB820203EBC6
:1011D00042021044761C0590EFE759F8042B059263
:1011E000002A03DA504244F40054059044F002040B
:1011F000761C30782E2816D116F8010F44F004041E
:101200002A280DD06FF02F023078A0F13003092B7F
:1012100009D807EB870302EB4303C718761CF3E7F3
:1012200059F8047B761C30786C280FD006DC4C28EB
:1012300017D068280DD06A2814D104E0742810D083
:101240007A280FD10DE044F400140AE044F480142D
:1012500001E044F440147278824202D104F5801413
:10126000761C761C307866280BD013DC582877D093
:1012700009DC002875D04528F6D04628F4D0472848
:101280001AD19DE118E0632835D0642879D065280B
:1012900012D195E1702873D008DC6728F1D0692855
:1012A0006FD06E280DD06F2806D1B5E073282CD0F2
:1012B000752875D0782874D05A46179990476D1CB8
:1012C00075E1C4F30250022809D003280DD0D9F8E3
:1012D000001004280DD00D6009F1040967E1D9F868
:1012E0000010EA17C1E90052F6E7D9F800100D80A6
:1012F000F2E70D70F0E719F8041B8DF800100020DC
:101300008DF80100EA46012003E059F804AB4FF0E4
:10131000FF3061074FF0000102D40DE008F1010138
:101320008846B9420FDA8045F8DB1AF80810002920
:10133000F4D108E008F1010188468142FADB1AF88D
:1013400008100029F6D105985B46A0EB0807214656
:101350003846179A00F094FA284400EB080507E095
:101360004DE029E10DE01AF8010B5A461799904714
:10137000B8F10108F7D25B4621463846179A13E1C7
:1013800042E00A220092C4F302524FF0000A022AFD
:1013900008D059F804CB032A4FEAEC710AD00DE0CB
:1013A00029E02AE009F1070121F00702F2E802C171
:1013B000914609E00FFA8CFC4FEAEC71042A03D144
:1013C0004FFA8CFC4FEAEC71002907DA0A4600213B
:1013D000DCF1000C61EB02012D2202E0220504D5B4
:1013E0002B228DF80420012203E0E20701D0202205
:1013F000F7E7904659E00A2102E010220DE01021A3
:101400004FF0000A00910BE010224FF0000A44F068
:1014100004040827009203E008224FF0000A00921B
:10142000C4F30252022A05D059F804CB0021032A42
:1014300008D009E009F1070121F00702F2E802C132
:10144000914605E01FFA8CFC042A01D10CF0FF0C38
:101450004FF00008220728D5702806D0009B83F0A3
:10146000100353EA0A0305D00EE040228DF8042051
:10147000012208E05CEA010206D030228DF8042047
:101480008DF8050002229046009B83F0080353EA82
:101490000A030AD15CEA010201D1620705D53022B4
:1014A0008DF804204FF001087F1E582804D034A086
:1014B00003900EA802900DE036A0F9E7534660466F
:1014C000009AFEF742FF84460398825C0298401E11
:1014D000029002705CEA0100F0D1029806A9081A95
:1014E00000F1200A600702D524F4803400E00127CF
:1014F000574502DDA7EB0A0000E0002000EB0A01DF
:10150000009005984144401A0590E00306D45B46DC
:101510002146179A059800F0B3F90544002706E024
:1015200001A85A46C05D179990476D1C7F1C47451E
:10153000F6DBE0030CD55B462146179A059800F0D0
:101540009FF9054404E030205A46179990476D1CD6
:101550000099481E00900029F5DC08E002980299E5
:101560005A460078491C0291179990476D1CBAF1B0
:101570000001AAF1010AF1DC65E10000092801007F
:1015800030313233343536373839616263646566F9
:1015900000000000303132333435363738394142BB
:1015A000434445460000000000F058F90544761C0D
:1015B000307800287FF4ECAD19B02846BDE8F08FF4
:1015C000620700D4062709F1070222F0070CFCE8A5
:1015D0000223E14603F000485FEA080C02D00FF254
:1015E000702C0DE05FEA045C02D50FF2682C07E076
:1015F0005FEAC47C02D00FF2602C01E0AFF2700C05
:101600004FF0FF3823F00043CDF850C065280CD0D0
:1016100006DC452809D046281DD047283DD13DE0AD
:10162000662818D067287ED138E00021112F01DB11
:10163000112000E0781CCDE9000106A90EA8FFF7F3
:10164000EDFCDDE90F010E9A03910021009207F1F4
:10165000010A04914DE04FF000400097CDE90110E0
:1016600006A90EA8FFF7DAFCDDE90F0203920E9B34
:1016700011990022DDF80CA00093049211B9791C95
:1016800000EB010AB7EB0A0004D4C0F1FF3007F108
:10169000010A0490AAEB0700019044E0012F00DA50
:1016A00001270021112F01DD112000E03846CDE98E
:1016B000000106A90EA8FFF7B1FCDDE90F010E9AA3
:1016C0000391002104910092BA4621070CD403999A
:1016D000514500DA8A46BAF1010F05DD009AAAF1F8
:1016E0000101515C302908D0B84202DA10F1040F30
:1016F00006DA0121CDE9011015E0AAF10101E9E7BF
:10170000002805DC049901440491AAEB000102E0E1
:10171000411C514500DD8A460499401A401C019045
:101720004FF000400290200704D40198504501DB9F
:10173000CDF8048000208DF84F0002980DF14F077E
:10174000B0F1004F25D02B200E9002984FF00208E8
:1017500000280CDA404202902D200E9007E00A216A
:101760000298FEF7DCFD3031029007F8011DB8F158
:101770000001A8F10108F2DC02980028EFD1791EDF
:101780000E980870307800F0200040F0450007F80F
:10179000020D12A8C01B00F107081498007800B1D0
:1017A000012000EB0A01019801EBE071059841442A
:1017B000401A401E0590E00306D45B462146179A66
:1017C000059800F05DF805441498007818B15A4661
:1017D000179990476D1CE00324D55B462146179A64
:1017E000059800F04DF805441CE00498002807DB3C
:1017F000DDE90301884203DD0098405C179901E0B0
:10180000179930205A469047049805F10105401C6D
:1018100004900198401E019004D12E205A46179939
:1018200090476D1CBAF10001AAF1010ADDDC05E068
:1018300017F8010B5A46179990476D1CB8F1000133
:10184000A8F10108F4DC5B462146179A0598ABE63F
:101850002D0000002B000000200000002DE9F041C9
:10186000044600251E461746880404D405E0394680
:101870002020B0476D1C641EF9D52846BDE8F081D4
:101880002DE9F041044600251E469046C80301D5C7
:10189000302700E02027880404D505E0414638467B
:1018A000B0476D1C641EF9D52846BDE8F0810000E4
:1018B00070B5074D0446C1B22846FFF715FB8021DD
:1018C0002846FFF79BFA0028F9D0204670BD00009B
:1018D0000038014000214FF00060FFF76DF94FF430
:1018E000A060FFF75FF90B4C08A0002120600A48B8
:1018F00060600120A0604002E0602046FFF74FFBDF
:10190000206108B100F0CEFFFEE70000526F6F7457
:1019100000000000A4000020CD0800082DE9F041DF
:10192000184E0F460446F5683068001D00F0D0FCE4
:1019300038B9306890F82C10012088403169814313
:101940003161601C07D137B13168BDE8F0410E4804
:10195000091D00F0F5BC30682C44AC42446031688D
:1019600005D2B06BBDE8F041091D00F0D1BC706B31
:10197000091D00F0CDFCB06A844200D2B462BDE81B
:10198000F08100002C000020F00300202DE9F04140
:10199000054600F0E1FC2D4EB068401CB060306898
:1019A0002B4F10B1706930B32BE03560B06801285F
:1019B00027D1002404EB840007EB800000F09AFCA0
:1019C000641C202CF6D3234800F094FC21481430EA
:1019D00000F090FC1F48283000F08CFC1D483C3083
:1019E00000F088FC1B48503000F084FC19487063FC
:1019F0001430B06305E03068E96AC06A884200D8F4
:101A00003560706A0121401C70626864E86A32695E
:101A100081401143316100EB800007EB8000291DFC
:101A200000F08EFC00F0D4FC706900280CD0306807
:101A3000E96AC06A884207D207494FF080500860BF
:101A4000BFF34F8FBFF36F8FBDE8F0812C000020F4
:101A500020010020A003002004ED00E010B500F0FC
:101A60007BFC0E4C2068A0B90D4800F043FC0C48EC
:101A7000143000F03FFC0A48E0601430206100227E
:101A80001021052000F0F0FF206010B105A100F04A
:101A900075FDBDE8104000F09BBC00006800002010
:101AA00004040020546D72510000000070B5124E05
:101AB000124D1CE000F040FF306820B1002401F01E
:101AC000F7FBA4B901E00124F9E700F045FCF06858
:101AD000C468201D00F0FCFBA868401EA860686870
:101AE000401E686000F074FC204600F052F8686800
:101AF0000028DFD170BD0000DC0300202C00002096
:101B000030B4026C0B46002A0BD0C1681144C1608E
:101B10004468A14201D30168C16030BC1846FEF799
:101B20006FBB30BC70472DE9F041856B174604460A
:101B30000026026C82B1C7B1E068FEF761FBE16884
:101B4000206C091AE1602268914202D26168081A89
:101B5000E060022F16D017E02068A8B9606801F095
:101B600001FB0646002060600EE0A068FEF748FB1F
:101B7000216CA0680844A0606168884204D3206892
:101B8000A06001E005B16D1E6D1CA5633046BDE887
:101B9000F08110B50446006B00F04CFC2046BDE817
:101BA000104000F047BC000010484FF4205142079D
:101BB00006D0C01D0D4920F00700411AC1F5205183
:101BC0000B4A00230144C2E900030839103A21F00E
:101BD000070111604B600B600B1AC0E900139360A2
:101BE0004FF000405360D060704700002C0400208C
:101BF0008C000020074E4FF08054074DFFF756FF32
:101C000030680128FAD92C60BFF34F8FBFF36F8F74
:101C1000F4E700002001002004ED00E02DE9F0478A
:101C2000DDE909840E461746824691009946089DD3
:101C3000A522206BFEF7F6FA6FF00301206B01EB93
:101C40008701084420F00707780705D040F22B32BF
:101C500019A11EA0FFF7C2F900202218315C82F8FA
:101C60003410315C11B1401C1028F6D3002684F8E2
:101C70004360202D00D31F25E562C4E91356201DC3
:101C800000F043FB04F1180000F03FFB2461C5F1B4
:101C900020006462A061666584F858604A46514637
:101CA000384600F003FB2060B8F1000F01D0C8F8FF
:101CB0000040BDE8F08700002E2E5C46726565523C
:101CC000544F535C7461736B732E63004572726F73
:101CD000723A25732C25640D0A00000030B51149B5
:101CE00000E011460A688242FBD34B685C188442CC
:101CF00003D1406818444860084643681C18944261
:101D000009D1084C103C2468A24209D052681A44F8
:101D100042600A6812680260814200D0086030BDEB
:101D20000460F9E78C00002070B5002441600B4D81
:101D30000061914206D8D11A8269914206D2011DF2
:101D4000286907E09A4203D2994201D3012403E0B3
:101D5000011DE86800F0DCFA204670BD6800002034
:101D600010B5044600F0F8FAA06B20B1002400F092
:101D70002FFB204610BD0124F9E700002DE9F341B7
:101D800000980F460026846C2CB940F6CE1216A19E
:101D90001AA0FFF723F9A06BE16B884205D340F648
:101DA000CF1211A115A0FFF719F9A06BE16B8842C2
:101DB0000CD294F945503A4669462046FFF7B3FEE7
:101DC0000646681C05D06D1C84F845503046BDE8B9
:101DD000FC81606A0028F9D004F1240001F01CFAAB
:101DE0000028F3D00126F1E72E2E5C46726565527D
:101DF000544F535C71756575652E63004572726F43
:101E0000723A25732C25640D0A000000F8B50546CA
:101E100014480E46C068C068C468201D00F058FA17
:101E2000E069012817D1A0692B46411932462046A6
:101E3000FFF77AFF78B100200346014600902A465A
:101E4000204601F01BFB30B907494FF4027201F143
:101E50001800FFF7C3F8616A01B02046BDE8F04002
:101E60000847000068000020E033000870B586B025
:101E70002F4E53E00198002806DADDE90301029AAB
:101E800090470198002849DB039C606910B1201D30
:101E900000F01EFA05A800F0A7F8054601980A28E8
:101EA0003CD2DFE800F00505053B273805053B2758
:101EB0000298A169034601442A462046FFF734FFF1
:101EC00000282BD0616A20468847E069012825D187
:101ED000002000900298A16900234218194620466C
:101EE00001F0CCFAD0B940F2213212A117A0FFF7CD
:101EF00075F813E00298A06128B94FF44E720DA155
:101F000012A0FFF76BF8A0692B4641191A4620462C
:101F1000FFF70AFF02E0204600F08CFA00231A4681
:101F200001A9306800F0DCFD0028A3D106B070BD27
:101F3000680000202E2E5C4672656552544F535C3B
:101F400074696D6572732E63000000004572726FD4
:101F5000723A25732C25640D0A000000F8B50D4671
:101F6000064600F0E9FC684600F03EF8044600989A
:101F700010B101F09DF9F8BD1148ADB101690968D2
:101F8000D9B10025311B2A46006800F009FB01F099
:101F90008FF90028EFD10B494FF080500860BFF354
:101FA0004F8FBFF36F8FF8BDA642EBD801F080F9D9
:101FB00021463046FFF72AFFF8BD0125E2E7000081
:101FC0006800002004ED00E00648416B096829B173
:101FD000416BC968C9684968816270474FF0FF3139
:101FE000FAE700002C00002070B5054601F040F82B
:101FF000064E0446B068844203D200F009F801207E
:1020000000E0002028602046B46070BD6800002019
:10201000F8B5184E26E0C068C4680568201D00F0B9
:1020200057F9616A20468847E06901281AD1A069FA
:102030002844A84206D924616060211DF06800F0A0
:1020400067F90FE000200346014600902A4620462B
:1020500001F014FA30B9084940F2923201F1180047
:10206000FEF7BCFFF06801680029D4D13169C6E9E8
:102070000310F8BD68000020E033000808484068FD
:10208000401C04D0F42207A111A0FEF7A7FF5020A6
:1020900080F31188BFF34F8FBFF36F8FFEE700000F
:1020A000940000202E2E5C4672656552544F535C9E
:1020B000706F727461626C655C525644535C41523D
:1020C0004D5F434D335C706F72742E6300000000EF
:1020D0004572726F723A25732C25640D0A00000058
:1020E000084CE068016839B1002139B10020FFF7E0
:1020F00035FFFFF7BBFEF4E70121F6E7C068006893
:10210000F5E70000680000202DE9F041044600F0EA
:1021100023F994F9455004F1240610E0A06C20B195
:1021200000212046FFF72AFE04E0606A48B13046ED
:1021300001F072F808B100F0F1FA6D1E6DB2002DD9
:10214000ECDC4FF0FF3684F8456000F041F900F018
:1021500003F994F9445004F1100709E0206948B1EB
:10216000384601F059F808B100F0D8FA6D1E6DB28A
:10217000002DF3DC84F84460BDE8F04100F028B99C
:102180002DE9F0410546002600F0D6FB324F3868B5
:1021900008B9FFF709FDF86805424FD1002D4DD071
:1021A000083568070BD005F00700C0F108000544AA
:1021B000680704D0BF2229A132A0FEF70FFF002D2F
:1021C0003CD07868854239D82349103108460468E4
:1021D00001E0214604466068A84202D22068002837
:1021E000F7D13868B846844228D00E682068086065
:1021F00060680836401B10280ED96719780704D08C
:10220000EC2216A11FA0FEF7E9FE6068401B786073
:1022100038466560FFF762FD6168D8F80400424601
:10222000401AC8F80400D8F80830984200D29060EC
:10223000D8F80C0001430020C4E9000101F038F88F
:10224000700705D04FF4967204A10EA0FEF7C6FEEB
:102250003046BDE8F08100007C0000202E2E5C4658
:1022600072656552544F535C706F727461626C6535
:102270005C4D656D4D616E675C686561705F342EA5
:10228000630000004572726F723A25732C25640D4D
:102290000A0000000449086818B10868026D521C61
:1022A00002650868704700002C00002010B5031F6D
:1022B0004FF080741C601B1F21F001011960191F71
:1022C000024B0B60143940380A6010BD7D200008B5
:1022D000D0E9013201699A60D0E901235A604A6865
:1022E000824201D182684A60002202610868401E71
:1022F0000860704700F108014FF0FF32C0E9011299
:10230000C1600161002101607047002101617047D7
:1023100030B50C68621C02D000F1080202E00269CC
:1023200004E01A4653681D68A542FAD953684B6009
:1023300099608A60516008610168491C016030BD84
:1023400042684A6093688B60936859609160086145
:102350000168491C01607047502080F31188BFF369
:102360004F8FBFF36F8F09494868401C48600128B0
:102370000AD10748006810F0FF0F05D04FF4BD7276
:1023800004A10FA0FEF72ABE7047000094000020B1
:1023900004ED00E02E2E5C4672656552544F535C8E
:1023A000706F727461626C655C525644535C41524A
:1023B0004D5F434D335C706F72742E6300000000FC
:1023C0004572726F723A25732C25640D0A00000065
:1023D00010B5084C606828B940F2811206A111A01E
:1023E000FEF7FCFD6068401E606001D180F311883B
:1023F00010BD0000940000202E2E5C4672656552D0
:10240000544F535C706F727461626C655C525644D9
:10241000535C41524D5F434D335C706F72742E6359
:10242000000000004572726F723A25732C25640D0E
:102430000A00000070B500282AD0164DA0F108044B
:102440006068E968084205D14FF4A07212A11CA08F
:10245000FEF7C4FD206828B140F241120EA118A079
:10246000FEF7BCFD6068E968084211D02268002AC6
:102470000ED18843606000F05FFA606869680844C4
:1024800068602046FFF72AFCBDE8704000F010BFEE
:1024900070BD00007C0000202E2E5C4672656552E7
:1024A000544F535C706F727461626C655C4D656D06
:1024B0004D616E675C686561705F342E630000007B
:1024C0004572726F723A25732C25640D0A00000064
:1024D00006484FF47A710068B0FBF1F14FF0E0204C
:1024E000491E41610721016170470000040000207E
:1024F00010B5FDF76FFE104C10280CD300F1E02052
:1025000090F8F0032178884205D24FF42A720BA18B
:1025100015A0FEF763FD18480068A16800F4E060AC
:10252000884207D9BDE810404FF42E7203A10EA0D7
:10253000FEF754BD10BD0000940000202E2E5C4616
:1025400072656552544F535C706F727461626C6552
:102550005C525644535C41524D5F434D335C706F47
:1025600072742E63000000004572726F723A257318
:102570002C25640D0A0000000CED00E010B5074B9F
:10258000002253F832401CB1521C082AF9D310BD66
:1025900043F8321003EBC201486010BDE000002098
:1025A00070B515460E460446FFF7D6FE94F9441062
:1025B0000020491C01D184F8440094F94510491CBD
:1025C00001D184F84500FFF703FFA06B28B92A4624
:1025D000314604F1240000F0D1F82046BDE87040F7
:1025E000FFF792BD10B5040012D00E49096B29B156
:1025F00040F2CF420CA111A0FEF7F0FC00F09CF9D4
:1026000000212046FFF78AF900F052FE002807D18A
:102610000E494FF080500860BFF34F8FBFF36F8FAC
:1026200010BD00002C0000202E2E5C467265655205
:10263000544F535C7461736B732E63004572726FF9
:10264000723A25732C25640D0A00000004ED00E0A9
:1026500070B50446FFF780FE234D04B92C68201D99
:10266000FFF736FE58B9E06A204A00EB800152F8C5
:10267000211021B901218140286988432861A06A7D
:1026800018B104F11800FFF723FE686A401C686265
:102690002868844207D1211D1548FFF751FE68685C
:1026A000401C686007E0A868401EA8602046FFF74D
:1026B00070FAFFF789FCFFF78BFE6869002812D0DB
:1026C000286884420FD1286B28B140F2654209A1E5
:1026D0000DA0FEF783FC10494FF080500860BFF357
:1026E0004F8FBFF36F8F70BD2C00002020010020A2
:1026F000DC0300202E2E5C4672656552544F535CFD
:102700007461736B732E63004572726F723A257336
:102710002C25640D0A00000004ED00E001490120B1
:10272000C86170472C00002070B50D46040005D12B
:1027300040F6063207A10CA0FEF750FC0E480168D7
:1027400020461831FFF7E4FD2846BDE8704001211E
:10275000FFF7E4B82E2E5C4672656552544F535C09
:102760007461736B732E63004572726F723A2573D6
:102770002C25640D0A0000002C00002070B51446C2
:102780000E46050005D140F6313209A10DA0FEF735
:1027900025FC1048016828461831FFF7D1FD0CB11F
:1027A0004FF0FF3621463046BDE87040FFF7B6B81F
:1027B0002E2E5C4672656552544F535C7461736B88
:1027C000732E63004572726F723A25732C25640D67
:1027D0000A0000002C00002070B5040039D01D4D07
:1027E000E06A2968C96A884233D2A069002804DBFC
:1027F0002868C06AC0F12000A061E06A164E00EBB4
:102800008000616906EB800081421FD1201DFFF727
:102810005FFD012150B9E06A00EB800256F82220EA
:1028200022B92A6901FA00F082432A612868C06A45
:10283000E0622A6981401143296100EB800006EBC8
:102840008000211DBDE87040FFF77ABD2868C06A8E
:10285000E06270BD2C0000202001002010B50400B3
:1028600005D140F6C13205A109A0FEF7B7FB0C481F
:10287000016A2160C068606010BD00002E2E5C46B9
:1028800072656552544F535C7461736B732E6300B1
:102890004572726F723A25732C25640D0A00000090
:1028A0002C0000201CB517480024CDE90040234629
:1028B000822215A1164800F0A1FB012803D100F0E7
:1028C000A3FD01280AD0401C1BD102B040F2847243
:1028D000BDE810400FA114A0FEF780BB502080F38C
:1028E0001188BFF34F8FBFF36F8F06484FF0FF3152
:1028F0002C38816201214161C460BDE81C4000F0B8
:1029000061B81CBD5800002049444C45000000003F
:10291000F51B00082E2E5C4672656552544F535CC1
:102920007461736B732E63004572726F723A257314
:102930002C25640D0A0000000248016B491C01634C
:10294000704700002C00002070B5134D286B10B1AB
:102950000120E86170BD0020E86128690F4EB0FADF
:1029600080F0C0F11F0000EB800456F8240028B965
:1029700040F6F6220AA10FA0FEF730FB06EB84001A
:1029800000F10802416849684160914201D14968FB
:102990004160C868286070BD2C0000202001002024
:1029A0002E2E5C4672656552544F535C7461736B96
:1029B000732E63004572726F723A25732C25640D75
:1029C0000A0000001CB51A4908780190FF20087021
:1029D00008788DF800009DF80000164A00F05000BD
:1029E00010700720906007E09068401E90609DF88E
:1029F000000040008DF800009DF800000006F3D4B0
:102A0000107A000200F4E0609060019808700A48B3
:102A1000016841F470010160016841F0704101609A
:102A2000FFF756FD00205060FDF79EFB00201CBD07
:102A300000E400E09400002020ED00E010B55020FC
:102A400080F31188BFF34F8FBFF36F8F00F016FB39
:102A500018B104494FF080500860002080F31188BD
:102A600010BD000004ED00E02DE9F04117460E46D0
:102A7000050005D14FF4C47210A115A0FEF7AEFAFF
:102A8000BEB105FB06F05430FFF77AFB04000ED010
:102A900004F154007EB12060C4E90F5620460121A4
:102AA00000F0E0F884F8507000212046A164BDE8F1
:102AB000F0810020E7E72460EEE700002E2E5C4660
:102AC00072656552544F535C71756575652E630070
:102AD0004572726F723A25732C25640D0A0000004E
:102AE0002DE9FF4F83B09B468A4604004FF0000655
:102AF00005D140F2DC4251A155A0FEF76FFABAF1C0
:102B0000000F07D1206C28B140F2DD424BA150A04C
:102B1000FEF764FA00F09EFA38B9059828B14FF430
:102B20009C6246A14AA0FEF759FA4FF000094FF007
:102B30008057DFF82C81FFF70FFCA56B45B351469A
:102B40002046E668FEF7DCFFBBF1000F13D0E6601D
:102B5000606A50B104F1240000F05EFB28B1C8F8AF
:102B60000070BFF34F8FBFF36F8FFFF731FC012071
:102B700007B0BDE8F08F6D1EA563206810B9FFF7A0
:102B800089FB606020690028EFD004F11000E3E7C2
:102B9000059808B11EB106E0FFF71AFC27E0684669
:102BA000FFF75CFE0126FFF713FCFFF7C5FEFFF7FA
:102BB000D3FB94F94400401C01D184F8449094F96B
:102BC0004500401C01D184F84590FFF701FC05A9A0
:102BD000684600F0CFF9002820460AD0FFF794FAA3
:102BE00000F066FB2046FFF7BBF80028A3D00020CA
:102BF000BEE7FFF7B5F8D8B1206830B9FFF7ACFBF6
:102C00006068FFF7E9FDFFF7E3FB04F12400059995
:102C1000FFF78AFD2046FFF777FA00F049FB00280E
:102C200089D1C8F80070BFF34F8FBFF36F8F82E771
:102C30002046FFF769FA00F03BFB7CE72E2E5C464E
:102C400072656552544F535C71756575652E6300EE
:102C50004572726F723A25732C25640D0A000000CC
:102C600004ED00E070B50D46040005D140F21B12E2
:102C70001CA121A0FEF7B2F9FFF76EFBD4E90F20EB
:102C8000216802FB001161600021A1632168A1603D
:102C90000A46D4E90F01401E00FB0121E1602146F4
:102CA0004FF0FF3001F8440F487004F110004DB1AF
:102CB000FFF720FB04F12400FFF71CFBFFF788FB64
:102CC000012070BD21690029F8D000F0A5FA002884
:102CD000F4D00D494FF080500860BFF34F8FBFF321
:102CE0006F8FEBE72E2E5C4672656552544F535C36
:102CF00071756575652E63004572726F723A257342
:102D00002C25640D0A00000004ED00E02DE9FF4FC2
:102D100083B099468B4604004FF0000605D140F27F
:102D2000D92252A156A0FEF759F9BBF1000F07D1E5
:102D3000206C28B140F2DA224CA151A0FEF74EF9E6
:102D4000B9F1020F08D1E06B012805D040F2DB2277
:102D500046A14BA0FEF742F900F07CF938B905987E
:102D600028B140F2DE2241A145A0FEF737F94FF02D
:102D7000000A4FF08057DFF81881FFF7EDFAA06BDB
:102D8000E16B884206D3B9F1020F03D0059800B376
:102D900016B325E04A4659462046FEF7C4FEA16C0C
:102DA00021B149462046FEF7E9FF05E0616A19B105
:102DB00004F1240000F030FA28B1C8F80070BFF325
:102DC0004F8FBFF36F8FFFF703FB012007B0BDE804
:102DD000F08FFFF7FDFA21E06846FFF73FFD01267F
:102DE000FFF7F6FAFFF7A8FDFFF7B6FA94F94400EB
:102DF000401C01D184F844A094F94500401C01D145
:102E000084F845A0FFF7E4FA05A9684600F0B2F897
:102E100030B12046FFF778F900F04AFA0020D5E7F4
:102E2000FFF79AFAA06BE16B884201D1012500E01F
:102E30000025FFF7CDFA95B104F110000599FFF7D1
:102E400073FC2046FFF760F900F032FA002894D1B5
:102E5000C8F80070BFF34F8FBFF36F8F8DE7204628
:102E6000FFF752F900F024FA87E700002E2E5C46A7
:102E700072656552544F535C71756575652E6300BC
:102E80004572726F723A25732C25640D0A0000009A
:102E900004ED00E02DE9F047984615468946040008
:102EA00005D140F29F322AA12EA0FEF797F8B9F182
:102EB000000F07D1206C28B14FF4687224A129A01B
:102EC000FEF78CF8B8F1020F08D1E06B012805D0AD
:102ED00040F2A1321EA123A0FEF780F8FFF708FB05
:102EE0005020EFF3118780F31188BFF34F8FBFF3AA
:102EF0006F8FA06BE16B884207D3B8F1020F04D04B
:102F0000002087F31188BDE8F08794F945604246B8
:102F100049462046FEF707FE701C04D0761C84F854
:102F200045600120EDE7A06C012620B14146204616
:102F3000FEF724FF06E0606A0028F2D004F12400C6
:102F400000F06AF90028ECD0002DEAD02E60E8E706
:102F50002E2E5C4672656552544F535C71756575D3
:102F6000652E63004572726F723A25732C25640DCD
:102F70000A00000070B50D46040005D140F6CB32C2
:102F800014A119A0FEF72AF82DB940F6CC3211A1F0
:102F900015A0FEF723F8FFF7DFF9174AD068296874
:102FA0004B1C0FD02368126A934202D0626882429F
:102FB0000AD96268801A884206D2081A2860204618
:102FC000FFF74CFC002400E00124FFF701FA204643
:102FD00070BD00002E2E5C4672656552544F535CE6
:102FE0007461736B732E63004572726F723A25734E
:102FF0002C25640D0A0000002C0000202DE9FF5F45
:103000008346DDE90E87994616468A469000FFF70B
:10301000B7F805001AD05C20FFF7B2F8040012D010
:1030200025630021CDE90241CDE900874B463246B8
:1030300051465846FEF7F2FD2046FEF7A7FC012058
:1030400004B0BDE8F09F2846FFF7F4F94FF0FF30D9
:10305000F6E700000548416919B1006B18B100207E
:103060007047012070470220704700002C000020AC
:103070000148C068704700002C0000202DE9F04195
:103080002D4F0026386B40B1B869401CB861F86913
:1030900000B101263046BDE8F081FD686D1CFD6081
:1030A00011D1786B006828B140F6D91223A128A06D
:1030B000FDF794FF786BB96B7963B863386A401C8D
:1030C0003862FEF781FFB86ADFF89480854209D341
:1030D000786B006880B1786BC068C46860688542AE
:1030E0000DD2B8623868C06A00EB800158F8210040
:1030F0000128CCD90126CAE74FF0FF30F1E7201DA7
:10310000FFF7E6F8A06A18B104F11800FFF7E0F83D
:10311000E06A01213A6981401143396100EB800185
:1031200008EB8100211DFFF70BF9E06A3968C96AD5
:103130008842CDD30126CBE72C0000202E2E5C4602
:1031400072656552544F535C7461736B732E6300E8
:103150004572726F723A25732C25640D0A000000C7
:103160002001002070B504004FF000063CD01F4D38
:103170002868844205D040F6C7621DA121A0FDF752
:103180002DFF206D28B940F6C96219A11DA0FDF7D9
:1031900025FF206D401E2065E26CE16A914223D03C
:1031A00010BB201DFFF794F81A49012250B9E06ABC
:1031B00000EB800351F8233023B92B6902FA00F0A9
:1031C00083432B61E06CE062C0F12000A061E06A03
:1031D0002B6982401A432A6100EB800001EB8000DA
:1031E000211DFFF7ADF80126304670BD2C000020F0
:1031F0002E2E5C4672656552544F535C7461736B3E
:10320000732E63004572726F723A25732C25640D1C
:103210000A000000200100202DE9F041C068C468C8
:103220002CB940F6613216A11AA0FDF7D7FE04F1C1
:1032300018000746FFF74CF81A4D286B012660B1BD
:1032400039461948FFF77CF8E06A2968C96A88425C
:1032500013D90120EE61BDE8F081201DFFF738F899
:10326000E06A2A6906FA00F1114329610F4900EB6F
:10327000800001EB8000211DE4E70020EBE7000067
:103280002E2E5C4672656552544F535C7461736BAD
:10329000732E63004572726F723A25732C25640D8C
:1032A0000A0000002C000020C8030020200100209C
:1032B0002DE9F0472B4D00242746286B28B94FF401
:1032C000FD6229A12DA0FDF789FEFFF745F8286BC7
:1032D000401E2863286BE8BBA8682C490126C8B3A8
:1032E000A1F52A798846D8F80010E9B1D8F80C0081
:1032F000C46804F11800FEF7EBFF201DFEF7E8FF9D
:10330000E06A2A6906FA00F11143296100EB8001A5
:1033100009EB8100211DFFF713F8E06A2968C96AEB
:103320008842E0D3EE61DEE70CB1FEF74DFEAC69FA
:103330003CB1FFF7A3FE00B1EE61641EF9D100209D
:10334000A861E86930B11249012738070860BFF366
:103350004F8F00E001E0BFF36F8FFFF739F8384679
:10336000BDE8F0872C0000202E2E5C467265655269
:10337000544F535C7461736B732E63004572726FAC
:10338000723A25732C25640D0A000000C803002042
:1033900004ED00E02DE9F0470746994616460D4634
:1033A0002C20DDF820A0FEF7EBFE040014D0B84678
:1033B0004F46D1462DB94FF4C67209A10EA0FDF7B4
:1033C0000DFEFEF74BFB04F11801C4F8008081E804
:1033D000E002201DFEF799FF2046BDE8F0870000BF
:1033E0002E2E5C4672656552544F535C74696D6550
:1033F00072732E63000000004572726F723A25737B
:103400002C25640D0A0000001CB50024FEF726FBE5
:103410000C48006868B10B491F20091DCDE9000167
:1034200000234FF4827208A10948FFF7E7FD04006A
:1034300005D140F2331207A10CA0FDF7CFFD2046C5
:103440001CBD000068000020546D7220537663009C
:10345000E12000082E2E5C4672656552544F535C85
:1034600074696D6572732E63000000004572726F9F
:10347000723A25732C25640D0A0000002DE9FF47E0
:10348000DDF830A0994690460D4606004FF0000743
:1034900005D14FF4D37212A117A0FDF79FFD1A4C6E
:1034A000206880B1CDE900580296062D11DAFFF7A9
:1034B000D1FD02284FF0000309D0002269462068A0
:1034C000FFF724FC074604B03846BDE8F0875246B3
:1034D000F4E700234A466946FFF7DCFCF2E7000008
:1034E0002E2E5C4672656552544F535C74696D654F
:1034F00072732E63000000004572726F723A25737A
:103500002C25640D0A000000680000200010002037
:103510003035000800000020A4000000FC0F000867
:10352000D4350008A40000208C2F00000C100008E7
:103530000AD7233C00A24A0400000000000000005B
:10354000010203040607080902040608000000003F
:103550000102030401020304060708090000000039
:10356000000000000000000000000000000000005B
:10357000000000000000000000000000000000004B
:10358000000000000000000000000000000000003B
:10359000000000000000000000000000000000002B
:1035A000000000000000000000000000000000001B
:1035B000000000000000000000000000000000000B
:1035C0000000000000000000AAAAAAAA0000000053
:0435D00000000000F7
:04000005080001DD11
:00000001FF
