:020000040800F2
:10000000D0280020DD010008690B0008990A0008CB
:10001000670B0008F1090008C90F00080000000084
:100020000000000000000000000000004501000882
:10003000F30900080000000089010008B10D000864
:10004000F7010008F7010008F7010008F7010008B0
:10005000F7010008F7010008F7010008F7010008A0
:10006000F7010008F7010008F7010008F701000890
:10007000F7010008F7010008F7010008F701000880
:10008000F7010008F7010008F7010008F701000870
:10009000F7010008F7010008F7010008F701000860
:1000A000F7010008F7010008F7010008F701000850
:1000B000F7010008F7010008F7010008F701000840
:1000C000F7010008F7010008F7010008F701000830
:1000D000F7010008F7010008F7010008F701000820
:1000E000F7010008F7010008F7010008F701000810
:1000F000F7010008F7010008F7010008F701000800
:10010000F7010008F7010008F7010008F7010008EF
:10011000F7010008F7010008F7010008F7010008DF
:10012000F7010008F7010008F7010008F7010008CF
:10013000DFF80CD000F02AFB00480047F91800084F
:10014000D0280020224B19680868B0E8F00F80F32F
:100150000988BFF36F8F4FF0000080F311884EF0D5
:100160000D0E70470000000006480068006880F32C
:10017000088862B661B6BFF34F8FBFF36F8F00DFA1
:1001800000BF00BF08ED00E0EFF30980BFF36F8F01
:100190000F4B1A6820E9F00F106008B54FF05000BF
:1001A00080F31188BFF34F8FBFF36F8F02F0A8FB6E
:1001B0004FF0000080F31188BDE808401968086816
:1001C000B0E8F00F80F30988BFF36F8F704700BF6E
:1001D0002C000020EFF305807047000006488047A0
:1001E00006480047FEE7FEE7FEE7FEE7FEE7FEE71C
:1001F000FEE7FEE7FEE7FEE7C50D00083101000857
:1002000040EA01039B0703D009E008C9121F08C098
:10021000042AFAD203E011F8013B00F8013B521E18
:10022000F9D27047D2B201E000F8012B491EFBD28F
:1002300070470022F6E710B513460A4604461946F1
:10024000FFF7F0FF204610BDF0B480EA0102D40FA2
:100250004200B2EB410F02D20246084611464A0064
:1002600042D0C30DDDB2C1F3C752AD1A202D35DA2D
:10027000C1F3160141F4000204B15242C5F1200657
:1002800002FA06F12A411044B3EBD05F23D0C4B187
:10029000012DA0EBC35009DCF0BC4FF0004202EA94
:1002A000C352DBB200F5000000F089B8400000F155
:1002B000807000EBC350A0F1807040EAD17049001B
:1002C00009E0490841EAC071A0EBC35000F5000005
:1002D000400800EBC350F0BC00F068B86142012256
:1002E00002EB4101001BF6E7F0BC704781F00041D2
:1002F000AAE780F00040A7E700F0004230F000409D
:100300000AD0C10D01F56071C0F3160042EA015137
:10031000C20840071143704700200146704730B5BE
:100320000B46014600202022012409E021FA02F5B3
:100330009D4205D303FA02F5491B04FA02F528444D
:10034000151EA2F10102F1DC30BD2DE9F05F05467A
:10035000002092469B4688460646814640241BE084
:10036000284641464746224600F031FA53465A464F
:10037000C01A914110D311461846224600F018FACF
:100380002D1A67EB01084F4622460120002100F09C
:100390000FFA17EB00094E41201EA4F10104DFDC27
:1003A000484631462A464346BDE8F09F0029A8BF8B
:1003B0007047401C490008BF20F00100704710B48E
:1003C000B0FA80FC00FA0CF050EA010404BF10BC43
:1003D000704749B1CCF1200421FA04F411FA0CF170
:1003E00018BF012121430843A3EB0C01CB1D4FEAA9
:1003F00000614FEA102042BF002010BC704700EBA4
:10040000C35010440029A4BF10BC7047401C4900D1
:1004100008BF20F0010010BC70472DE9FE4F804658
:1004200081EA0300C00F0C46009021F0004123F048
:100430000045B8EB0200A94105D24046214690464E
:100440001C460B46024623F00040104347D0270DC0
:10045000C7F30A00C3F30A510290401A01904028E2
:100460006BDAC3F3130040F4801B0098924620B16E
:100470000023D2EB030A63EB0B0B01985946C0F142
:100480004002504600F094F906460D465046594643
:10049000019A00F0ACF910EB08006141002487EAF2
:1004A000115284EAE7731A4340D0009A62B3019A6A
:1004B000012A4FEA075215DC001B61EB02014FF0E5
:1004C000004202EA0752CDE90042001C41F58011CA
:1004D00032462B4600F0ACF903B0BDE8F08F404641
:1004E0002146F9E7001B61EB0201001C41F5801376
:1004F00000185B412018A2F5001747EB030140EA02
:10050000D570B6196D4111E06D084FEA360645EA1F
:10051000C0754FEA0752001B61EB0201001C41F558
:10052000801149084FEA30000019514132462B46EC
:1005300003B0BDE8F04F00F06CB900980122400014
:100540000023D0EB020263EBE073009821464FEAF0
:10055000E074B8EB000061EB0401E9E783F00043CD
:100560005BE781F0004158E72DE9FE4F81EA030483
:1005700004F0004421F0004100944FF0000B23F000
:10058000004350EA01045ED052EA03045BD0C3F397
:100590000A54C1F30A552C44A4F2F3340194A0FB8D
:1005A0000254C1F3130141F48011C3F3130343F464
:1005B000801301FB024400FB034E840A970A44EABD
:1005C000815447EA8357A4FB076802958D0A05FB0F
:1005D00007854FEA932C04FB0C542705029D4FEA34
:1005E000065847EA1637B5EB08056EEB070C870E81
:1005F000920E47EA811742EA8312A7FB0201B6EB8B
:100600000B0164EB00042B0D43EA0C335E1844EB42
:100610001C50DA465146E7FB0201C5F313044FEACA
:100620000B3343EA14534FEA0432019C43EA0603B6
:10063000A4F10C040294009CCDE900B400F0F8F899
:1006400003B0BDE8F08F00200146F9E72DE9F04D39
:1006500081EA030404F0004B21F0004514464FF0FA
:10066000000A23F0004150EA050220D054EA0102BA
:100670001DD0C5F30A570246C5F31303C1F3130097
:10068000C1F30A5640F4801543F48013A7EB060823
:10069000101BD64608F2FD3873EB050002D308F1B3
:1006A000010801E092185B41B8F1000F03DA002065
:1006B0000146BDE8F08D00204FF4801106468446C7
:1006C0000EE0171B73EB050705D3121B63EB050345
:1006D00006434CEA010C49084FEA300092185B418E
:1006E00050EA0107EDD152EA030012D082EA040079
:1006F00083EA0501084305D0101BAB4106D2012255
:10070000002306E000224FF0004302E06FF00102F8
:1007100053101AEB06004CEB085110EB0A0041EBAA
:100720000B01BDE8F04D00F074B8C1F30A52C1F3FB
:10073000130140F2FF3341F480119A4202DA0020A3
:100740000146704740F233439A42A2F2334202DC40
:10075000524200F03CB800F02BB8000030B5041E47
:1007600071F1000404DB4FF00044404264EB0101EE
:10077000141E73F1000405DB1C464FF00043524287
:1007800063EB0403994208BF904230BD064C074D0D
:1007900006E0E06840F0010394E807009847103451
:1007A000AC42F6D3FFF7C8FCAC340008CC340008E8
:1007B000202A04DB203A00FA02F100207047914021
:1007C000C2F1200320FA03F3194390407047202A16
:1007D00004DB203A21FA02F00021704721FA02F3EB
:1007E000D040C2F120029140084319467047202AA8
:1007F00006DBCB17203A41FA02F043EAE07306E049
:1008000041FA02F3D040C2F1200291400843194658
:10081000704710B5141E73F1000408DA401C41F152
:10082000000192185B411A4301D120F0010010BD74
:100830002DE9F04D92469B4611B1B1FA81F202E0EA
:10084000B0FA80F220329046FFF7B2FF04460F461E
:1008500040EA0A0041EA0B0153465A46084313D0C6
:10086000114653EA010019D0C8F140025046FFF783
:10087000AEFF05460E46504659464246FFF798FFE2
:10088000084305D0012004E020463946BDE8F08D3C
:100890000020054346EAE0762C4337430A98630577
:1008A000E40AA0EB08000022FD0A44EA47540A309B
:1008B00002D500200146E9E7010510196941DDE98B
:1008C000084500196941BDE8F04DA2E770B500F098
:1008D00073F800F023FB00F0FDF800F0DFF85C2176
:1008E0001E48FFF7A6FC1D48002100F1D404A061BA
:1008F0001B4860611BA020601D486060022005024B
:10090000C4E90205204600F060FB206110B119A087
:1009100000F076FB11485C215C30FFF78AFC0F4841
:1009200000215C3000F19404A061A0F6B800606181
:1009300016A02060184860600320C4E90205204624
:1009400000F043FB206110B114A000F059FB0348F4
:10095000B8300069BDE8704000F04CBB00190020C1
:10096000A40800204D61696E5F5461736B00000044
:10097000490B0008B4B4BDA84C45445F5461736B87
:10098000C8CECEF1B3C9B9A6210D0A005365636F75
:100990006E645F5461736B00A50C0008B4B4BDA80D
:1009A0005365636F6E645F5461736BC8CECEF1B3F1
:1009B000C9B9A6210D0A000038B50121202000F098
:1009C0001BF94FF40064ADF8004010208DF80300CF
:1009D0000320064D8DF802006946284600F00AF80B
:1009E0002146284600F056F838BD000000140140AA
:1009F000FEE77047F0B5CC78002204F00F03E40660
:100A000001D58C7823430C784FF00F0C14F0FF0FB6
:100A10004FF0010E1BD005680E880EFA02F4264036
:100A2000A64210D196000CFA06F725EA070703FA4A
:100A300006F5CE783D43282E02D0482E02D002E0A3
:100A4000446100E00461521C082AE5D305600A886D
:100A5000FF2A1CD94468002202F108060EFA06F5A6
:100A60000E882E40AE420ED196000CFA06F7BC431B
:100A700003FA06F7CE783C43282E00D14561CE78A4
:100A8000482E00D10561521C082AE5D34460F0BD10
:100A90004161704701617047FEE7000038B50121F0
:100AA000102000F0A9F80120ADF80000084D4824FE
:100AB0008DF8034069462846FFF79CFF0221ADF8F8
:100AC00000108DF8034069462846FFF793FF38BDB4
:100AD00000100140F8B50121202000F08DF84FF4FE
:100AE0008055ADF8005010240C4F8DF803400326BC
:100AF0008DF8026069463846FFF77CFF6002ADF86A
:100B000000008DF803408DF8026069463846FFF713
:100B100071FF29463846FFF7BDFFF8BD00140140BC
:100B2000024931F810100248FFF7B4BFA83400089A
:100B300000140140024931F810100248FFF7A8BF25
:100B4000A8340008001401404FF448740020FFF757
:100B5000F1FFC82001F016FD0020FFF7E1FF20465D
:100B600001F010FDF2E7FEE77047000030B50F23FB
:100B7000C27801780125F2B1144A126801F1E0212E
:100B800002F4E062C2F5E062120AC2F10404D3404A
:100B90004278A24084781C401443220181F800244A
:100BA000007800F01F018D404009800000F1E02036
:100BB000C0F8005130BD01F01F0085404809800099
:100BC00000F1E020C0F8805130BD00000CED00E0E5
:100BD0000249084302490860704700000000FA0516
:100BE0000CED00E0024A11400143024801607047E9
:100BF00080FFFF1F08ED00E0044A0029916901D041
:100C0000014300E081439161704700000010024001
:100C100030B5204A5168204B11F00C0103D0042953
:100C200001D0082901D0036012E05168536801F433
:100C300070114FF0020413F4803F04EB914102D095
:100C400053689B0301D5154B00E0134B59430160DA
:100C500051680F2303EA1111114B5C5C0168E140FC
:100C600041605468072505EA14241C5D21FA04F448
:100C70008460546805EAD4241B5DD940C160526881
:100C8000032303EA9232064B1B1F9A5CB1FBF2F17D
:100C9000016130BD0010024000127A0000093D00E1
:100CA0001C000020104E114C4FF47A750120FFF704
:100CB00041FF31462068FFF7C7FA206001F01CFBB6
:100CC0002068FFF719FB02460B4609A000F098F9CF
:100CD00001F04EFB284601F055FC0120FFF720FFF4
:100CE000284601F04FFCE1E70AD7233C0000002032
:100CF000666C6F61745F6E756DB5C4D6B5CEAA3A79
:100D000020252E34660D0A000CB5002226480092DC
:100D10000192016841F4803101604FF4A0630168E1
:100D200001F4003101910099491C0091019911B918
:100D300000999942F3D10168890333D501210191CA
:100D40001A490A6842F010020A600A6822F0030297
:100D50000A600A6842F002020A6041684160416824
:100D60004160416841F480614160416821F47C1137
:100D70004160416841F4E8114160016841F08071CF
:100D8000016001688901FCD5416821F003014160DF
:100D9000416841F0020141604168C1F381010229CB
:100DA000FAD10CBD01920CBD00100240002002409F
:100DB00010B502F04DF9012803D0BDE8104001F054
:100DC00019BE10BD0F4810B5016841F00101016066
:100DD00041680D4A1140416001680C4A11400160B0
:100DE000016821F480210160416821F4FE01416025
:100DF0004FF41F018160FFF787FF05494FF0006046
:100E0000086010BD001002400000FFF8FFFFF6FE72
:100E100008ED00E00029818902D041F4005101E091
:100E200021F40051818170470246002012880A4255
:100E300000D00120704710B5C1F3421301F01F0428
:100E40000121A140012B07D0022B07D01430002A2A
:100E5000026805D00A4304E00C30F8E71030F6E7EA
:100E60008A43026010BD000030B50446008A85B098
:100E70000D464CF6FF710840E98801432182A089A4
:100E80004EF6F3110840A9882A8911436A89024362
:100E90001143A181A08A4FF6FF410840A98901436F
:100EA000A1826846FFF7B4FE1948844201D1039835
:100EB00000E00298A189090400EBC00101EB0010D9
:100EC000296801D5490000E08900B0FBF1F06422F7
:100ED000B0FBF2F109010B096FF018056B4300EB51
:100EE0008300A3891D044FF0320306D503EBC00035
:100EF000B0FBF2F000F0070005E003EB0010B0FBE0
:100F0000F2F000F00F000843208105B030BD000072
:100F100000380140C1F308018180704730B587B0C7
:100F200001210420FFF768FE01218803FFF764FE1A
:100F30004FF40070ADF8100018208DF81300032056
:100F40001F4C8DF8120004A92046FFF753FD211510
:100F5000ADF8101004218DF8131004A92046FFF7F6
:100F600049FD00244FF4E1300090ADF808400C201A
:100F7000144DADF80440ADF80A00ADF80640ADF8E8
:100F80000C4069462846FFF76FFF25218DF81410A5
:100F90000F208DF815008DF8164001208DF81700F0
:100FA00005A8FFF7E3FD012240F225512846FFF78F
:100FB00042FF01212846FFF72DFF07B030BD00009A
:100FC0000008014000380140FEE73EB50D460446EA
:100FD00001F092F9D4E90512A0682B468DE80700CC
:100FE000D4E90010E26801F0EDFF044601F0C0F919
:100FF00020463EBD10B508B101F0FAFA002010BD40
:101000000FB4054B10B503A9044A029800F0CAF8C2
:1010100010BC5DF814FB0000D5180008A0000020EB
:1010200002E008C8121F08C1002AFAD170477047B1
:10103000002001E001C1121F002AFBD1704700000F
:101040002DE9FF5FDDE90220010DDDF838B0024334
:1010500018D044F61050A1F2FF3141430D140F98FF
:10106000012820D0A5EB0B00401C5FEA000A4FF0DE
:101070000004474EDFF81C91A046504616D5CAF131
:10108000000728E00F98012443A2012808D000217E
:1010900000980F9BC0E90021C0E90243BDE8FF9F13
:1010A0006FEA0B01F4E7CBF10000DEE7074612E040
:1010B000F80707D02246334640464946FFF754FA20
:1010C000804689462246334610461946FFF74CFAB9
:1010D00004460E467F10002FEAD1DDE90201BAF185
:1010E000000F42464B4602DAFFF73EFA01E0FFF7F7
:1010F000ADFA04460E460022284BFFF72FFB03D81B
:101100004FF0FF30014607E00022254B20463146D4
:10111000FFF783F9FFF709FB102409E0002C0ADB35
:101120000A220023FFF711F9019B30321A55641E81
:1011300050EA0102F2D1641C019AC4F11103144473
:101140000F9A012A03D0012208430DD10AE0084377
:1011500004D000204FF0110B0F9080E7A3EB0B059C
:101160006D1E0DE05B4504DD4FF0000205F1010549
:1011700004E003DA4FF00002A5F10105002AECD0EB
:1011800000980F99C0E90231C0E9004586E70000E8
:10119000000024400000F03F300000000000F04359
:1011A0000000E03F2DE9FF4F95B09B46894606467B
:1011B00000250FE2252877D100242746F84A01218F
:1011C000059400E0044316F8013F203B01FA03F0C8
:1011D0001042F7D130782A2811D06FF02F033078E1
:1011E000A0F13002092A16D8059A44F0020402EB55
:1011F000820203EB42021044761C0590EFE759F897
:10120000042B0592002A03DA504244F4005405905E
:1012100044F00204761C30782E2816D116F8010FFF
:1012200044F004042A280DD06FF02F023078A0F18A
:101230003003092B09D807EB870302EB4303C718D8
:10124000761CF3E759F8047B761C30786C280FD0B5
:1012500006DC4C2817D068280DD06A2814D104E089
:10126000742810D07A280FD10DE044F400140AE05D
:1012700044F4801401E044F440147278824202D1B4
:1012800004F58014761C761C307866280BD013DCAD
:10129000582877D009DC002875D04528F6D0462894
:1012A000F4D047281AD19DE118E0632835D064288E
:1012B00079D0652812D195E1702873D008DC6728B1
:1012C000F1D069286FD06E280DD06F2806D1B5E017
:1012D00073282CD0752875D0782874D05A46179961
:1012E00090476D1C75E1C4F30250022809D0032811
:1012F0000DD0D9F8001004280DD00D6009F10409B3
:1013000067E1D9F80010EA17C1E90052F6E7D9F809
:1013100000100D80F2E70D70F0E719F8041B8DF84E
:10132000001000208DF80100EA46012003E059F882
:1013300004AB4FF0FF3061074FF0000102D40DE025
:1013400008F101018846B9420FDA8045F8DB1AF846
:1013500008100029F4D108E008F101018846814213
:10136000FADB1AF808100029F6D105985B46A0EBC5
:10137000080721463846179A00F094FA284400EBF3
:10138000080507E04DE029E10DE01AF8010B5A4687
:1013900017999047B8F10108F7D25B4621463846C5
:1013A000179A13E142E00A220092C4F302524FF06E
:1013B000000A022A08D059F804CB032A4FEAEC713C
:1013C0000AD00DE029E02AE009F1070121F0070227
:1013D000F2E802C1914609E00FFA8CFC4FEAEC7189
:1013E000042A03D14FFA8CFC4FEAEC71002907DA8A
:1013F0000A460021DCF1000C61EB02012D2202E023
:10140000220504D52B228DF80420012203E0E207F7
:1014100001D02022F7E7904659E00A2102E010228D
:101420000DE010214FF0000A00910BE010224FF068
:10143000000A44F004040827009203E008224FF059
:10144000000A0092C4F30252022A05D059F804CBD4
:101450000021032A08D009E009F1070121F0070261
:10146000F2E802C1914605E01FFA8CFC042A01D182
:101470000CF0FF0C4FF00008220728D5702806D08A
:10148000009B83F0100353EA0A0305D00EE04022CC
:101490008DF80420012208E05CEA010206D0302227
:1014A0008DF804208DF8050002229046009B83F001
:1014B000080353EA0A030AD15CEA010201D1620778
:1014C00005D530228DF804204FF001087F1E5828E2
:1014D00004D034A003900EA802900DE036A0F9E7E6
:1014E00053466046009AFEF730FF84460398825CBC
:1014F0000298401E029002705CEA0100F0D102984E
:1015000006A9081A00F1200A600702D524F48034E5
:1015100000E00127574502DDA7EB0A0000E00020AC
:1015200000EB0A01009005984144401A0590E00341
:1015300006D45B462146179A059800F0B3F9054496
:10154000002706E001A85A46C05D179990476D1C18
:101550007F1C4745F6DBE0030CD55B462146179A16
:10156000059800F09FF9054404E030205A46179989
:1015700090476D1C0099481E00900029F5DC08E09A
:10158000029802995A460078491C0291179990478F
:101590006D1CBAF10001AAF1010AF1DC65E100005D
:1015A0000928010030313233343536373839616239
:1015B00063646566000000003031323334353637FD
:1015C00038394142434445460000000000F058F9D4
:1015D0000544761C307800287FF4ECAD19B028461D
:1015E000BDE8F08F620700D4062709F1070222F058
:1015F000070CFCE80223E14603F000485FEA080C10
:1016000002D00FF2702C0DE05FEA045C02D50FF2FD
:10161000682C07E05FEAC47C02D00FF2602C01E086
:10162000AFF2700C4FF0FF3823F00043CDF850C0FC
:1016300065280CD006DC452809D046281DD047284F
:101640003DD13DE0662818D067287ED138E00021E2
:10165000112F01DB112000E0781CCDE9000106A963
:101660000EA8FFF7EDFCDDE90F010E9A03910021B2
:10167000009207F1010A04914DE04FF000400097FD
:10168000CDE9011006A90EA8FFF7DAFCDDE90F028B
:1016900003920E9B11990022DDF80CA00093049296
:1016A00011B9791C00EB010AB7EB0A0004D4C0F1B0
:1016B000FF3007F1010A0490AAEB0700019044E013
:1016C000012F00DA01270021112F01DD112000E098
:1016D0003846CDE9000106A90EA8FFF7B1FCDDE907
:1016E0000F010E9A0391002104910092BA4621073E
:1016F0000CD40399514500DA8A46BAF1010F05DD91
:10170000009AAAF10101515C302908D0B84202DAEE
:1017100010F1040F06DA0121CDE9011015E0AAF15C
:101720000101E9E7002805DC049901440491AAEBD2
:10173000000102E0411C514500DD8A460499401A2F
:10174000401C01904FF000400290200704D4019803
:10175000504501DBCDF8048000208DF84F00029841
:101760000DF14F07B0F1004F25D02B200E900298BD
:101770004FF0020800280CDA404202902D200E9013
:1017800007E00A210298FEF7CAFD3031029007F8FF
:10179000011DB8F10001A8F10108F2DC029800284F
:1017A000EFD1791E0E980870307800F0200040F0DC
:1017B000450007F8020D12A8C01B00F10708149895
:1017C000007800B1012000EB0A01019801EBE07103
:1017D00005984144401A401E0590E00306D45B463C
:1017E0002146179A059800F05DF805441498007892
:1017F00018B15A46179990476D1CE00324D55B46F3
:101800002146179A059800F04DF805441CE004980D
:10181000002807DBDDE90301884203DD0098405C16
:10182000179901E0179930205A469047049805F11E
:101830000105401C04900198401E019004D12E2007
:101840005A46179990476D1CBAF10001AAF1010A96
:10185000DDDC05E017F8010B5A46179990476D1C1F
:10186000B8F10001A8F10108F4DC5B462146179AA3
:101870000598ABE62D0000002B00000020000000C2
:101880002DE9F041044600251E461746880404D47D
:1018900005E039462020B0476D1C641EF9D5284666
:1018A000BDE8F0812DE9F041044600251E46904632
:1018B000C80301D5302700E02027880404D505E0BF
:1018C00041463846B0476D1C641EF9D52846BDE830
:1018D000F081000070B5074D0446C1B22846FFF7FD
:1018E00019FB80212846FFF79FFA0028F9D02046EF
:1018F00070BD00000038014000214FF00060FFF78C
:1019000071F94FF4A060FFF763F95C210D48FEF711
:1019100090FC0C48002100F58A74A061A0F5C0502D
:10192000606109A020600A4860600120A060400258
:10193000E0602046FFF749FB206108B100F082FF1C
:10194000FEE70000A4180020526F6F740000000032
:10195000CD0800082DE9F041184E0F460446F56801
:101960003068001D00F06EFC38B9306890F82C101B
:1019700001208840316981433161601C07D137B152
:101980003168BDE8F0410E48091D00F0A9BC30687F
:101990002C44AC424460316805D2B06BBDE8F041E4
:1019A000091D00F085BC706B091D00F081FCB06A58
:1019B000844200D2B462BDE8F08100002C00002017
:1019C0001C1D00202DE9F041054600F095FC2D4E30
:1019D000B068401CB06030682B4F10B1706930B3F4
:1019E0002BE03560B068012827D1002404EB840087
:1019F00007EB800000F04EFC641C202CF6D323483B
:101A000000F048FC2148143000F044FC1F48283006
:101A100000F040FC1D483C3000F03CFC1B485030BE
:101A200000F038FC194870631430B06305E030688A
:101A3000E96AC06A884200D83560706A0121401C9A
:101A400070626864E86A326981401143316100EB79
:101A5000800007EB8000291D00F042FC00F088FCAC
:101A6000706900280CD03068E96AC06A884207D2E1
:101A700007494FF080500860BFF34F8FBFF36F8F5F
:101A8000BDE8F0812C0000204C1A0020CC1C002066
:101A900004ED00E038B500F02FFC104C2068C8B908
:101AA0000F4800F0F7FB0E48143000F0F3FB0C4831
:101AB000E060143020610A4B0020A43B009003F149
:101AC00054021021052000F0ABFF206010B105A1E9
:101AD00000F024FDBDE8384000F04ABC680000205A
:101AE000D41D0020546D72510000000070B5124EDC
:101AF000124D1CE000F0FCFE306820B1002401F023
:101B0000D5FBA4B901E00124F9E700F0F5FBF0688A
:101B1000C468201D00F096FBA868401EA860686895
:101B2000401E686000F024FC204600F053F868680E
:101B30000028DFD170BD0000081D00202C0000200F
:101B400030B4026C0B46002A0BD0C1681144C1604E
:101B50004468A14201D30168C16030BC1846FEF759
:101B60004FBB30BC70472DE9F041856B17460446EA
:101B70000026026C82B1C7B1E068FEF741FBE16864
:101B8000206C091AE1602268914202D26168081A49
:101B9000E060022F16D017E02068A8B9606801F055
:101BA000DFFA0646002060600EE0A068FEF728FB22
:101BB000216CA0680844A0606168884204D3206852
:101BC000A06001E005B16D1E6D1CA5633046BDE847
:101BD000F081000010B5044690F8590058B1012872
:101BE0000CD002280FD0BDE8104040F6296206A1B3
:101BF0000AA0FFF705BA206B00F0ECFB2046BDE819
:101C0000104000F0E7BB10BD2E2E5C467265655299
:101C1000544F535C7461736B732E63004572726F23
:101C2000723A25732C25640D0A000000074E4FF010
:101C30008054074DFFF75AFF30680128FAD92C600D
:101C4000BFF34F8FBFF36F8FF4E700004C1A0020F3
:101C500004ED00E070B51D46049C59B12260C4E952
:101C60000F010121204600F0E1FF84F850500020D0
:101C7000A06470BD2460F2E72DE9F047DDE9098436
:101C80000E461746824691009946089DA522206B74
:101C9000FEF7C8FA6FF00301206B01EB87010844DF
:101CA00020F00707780705D040F22B3219A11EA0BB
:101CB000FFF7A6F900202218315C82F83410315C5D
:101CC00011B1401C1028F6D3002684F84360202D63
:101CD00000D31F25E562C4E91356201D00F0E5FA84
:101CE00004F1180000F0E1FA2461C5F120006462FB
:101CF000A061666584F858604A465146384600F04F
:101D00008FFA2060B8F1000F01D0C8F80040BDE89C
:101D1000F08700002E2E5C4672656552544F535C6E
:101D20007461736B732E63004572726F723A257320
:101D30002C25640D0A00000030B5114900E0114661
:101D40000A688242FBD34B685C18844203D1406826
:101D500018444860084643681C18944209D1084C4E
:101D6000103C2468A24209D052681A4442600A68B2
:101D700012680260814200D0086030BD0460F9E75B
:101D80008C00002070B5002441600B4D0061914231
:101D900006D8D11A8269914206D2011D286907E04E
:101DA0009A4203D2994201D3012403E0011DE8685D
:101DB00000F07EFA204670BD6800002010B5044691
:101DC00000F09AFAA06B20B1002400F0D1FA20466E
:101DD00010BD0124F9E700002DE9F34100980F46FA
:101DE0000026846C2CB940F6CE1216A11AA0FFF77B
:101DF00007F9A06BE16B884205D340F6CF1211A121
:101E000015A0FFF7FDF8A06BE16B88420CD294F9A6
:101E100045503A4669462046FFF7A5FE0646681C2F
:101E200005D06D1C84F845503046BDE8FC81606AE1
:101E30000028F9D004F1240001F0ECF90028F3D0D7
:101E40000126F1E72E2E5C4672656552544F535CB5
:101E500071756575652E63004572726F723A2573F0
:101E60002C25640D0A000000F8B5054614480E46FE
:101E7000C068C068C468201D00F0E4F9E06901286A
:101E800017D1A0692B46411932462046FFF77AFF49
:101E900078B100200346014600902A46204601F012
:101EA000BBFA30B907494FF4027201F11800FFF78D
:101EB000A7F8616A01B02046BDE8F040084700007D
:101EC00068000020DC20000870B586B0314E56E076
:101ED0000198002806DADDE90301029A904701988B
:101EE00000284CDB039C606910B1201D00F0AAF9AA
:101EF00005A800F0ABF8054601980A283FD2DFE8B4
:101F000000F00505053E273805053E270298A16922
:101F1000034601442A462046FFF734FF00282ED00E
:101F2000616A20468847E069012828D10020009096
:101F30000298A169002342181946204601F06CFA64
:101F4000E8B940F2213214A119A0FFF759F816E0C0
:101F50000298A06128B94FF44E720FA114A0FFF7A8
:101F60004FF8A0692B4641191A462046FFF70AFF91
:101F700005E094F82C0010B9204600F02BFA00235D
:101F80001A4601A9306800F08FFD0028A0D106B0E4
:101F900070BD0000680000202E2E5C467265655200
:101FA000544F535C74696D6572732E6300000000BA
:101FB0004572726F723A25732C25640D0A00000079
:101FC000F8B50D46064600F093FC684600F03EF872
:101FD0000446009810B101F069F9F8BD1148ADB19F
:101FE00001690968D9B10025311B2A46006800F053
:101FF000A7FA01F05BF90028EFD10B494FF08050B0
:102000000860BFF34F8FBFF36F8FF8BDA642EBD8C8
:1020100001F04CF921463046FFF726FFF8BD0125B7
:10202000E2E700006800002004ED00E00648416B94
:10203000096829B1416BC968C968496881627047FC
:102040004FF0FF31FAE700002C00002070B5054684
:1020500001F00CF8064E0446B068844203D200F04A
:1020600009F8012000E0002028602046B46070BD1F
:1020700068000020F8B5184E25E0C068C4680568FF
:10208000201D00F0DFF8616A20468847E0690128DA
:1020900019D1A0692844A84206D924616060211D95
:1020A000F06800F005F90EE00020034601460090BC
:1020B0002A46204601F0B0F928B940F2923207A131
:1020C0000CA0FEF79DFFF06801680029D5D13169A9
:1020D000C6E90310F8BD0000680000202E2E5C4603
:1020E00072656552544F535C74696D6572732E63EB
:1020F000000000004572726F723A25732C25640D42
:102100000A00000008484068401C04D0F42207A1DF
:1021100011A0FEF775FF502080F31188BFF34F8F99
:10212000BFF36F8FFEE70000940000202E2E5C4668
:1021300072656552544F535C706F727461626C6566
:102140005C525644535C41524D5F434D335C706F5B
:1021500072742E63000000004572726F723A25732C
:102160002C25640D0A000000084CE068016839B1B4
:10217000002139B10020FFF723FFFFF7A5FEF4E7A8
:102180000121F6E7C0680068F5E70000680000205C
:102190002DE9F041044600F0AFF894F9455004F100
:1021A000240610E0A06C20B100212046FFF714FEA9
:1021B00004E0606A48B1304601F02CF808B100F044
:1021C0007DFA6D1E6DB2002DECDC4FF0FF3684F809
:1021D000456000F0CDF800F08FF894F9445004F118
:1021E000100709E0206948B1384601F013F808B13A
:1021F00000F064FA6D1E6DB2002DF3DC84F84460CB
:10220000BDE8F04100F0B4B80449086818B10868A6
:10221000026D521C02650868704700002C00002007
:1022200010B5031F4FF080741C601B1F21F00101CB
:102230001960191F024B0B60143940380A6010BD39
:1022400005210008D0E9013201699A60D0E9012333
:102250005A604A68824201D182684A600022026163
:102260000868401E08607047034B036003F15C0080
:102270000860822010607047FC1D0020044B036042
:1022800003F15C0008604FF482701060704700003A
:102290006020002000F108014FF0FF32C0E9011278
:1022A000C160016100210160704700210161704738
:1022B00030B50C68621C02D000F1080202E002692D
:1022C00004E01A4653681D68A542FAD953684B606A
:1022D00099608A60516008610168491C016030BDE5
:1022E00042684A6093688B609368596091600861A6
:1022F0000168491C01607047502080F31188BFF3CA
:102300004F8FBFF36F8F09494868401C4860012810
:102310000AD10748006810F0FF0F05D04FF4BD72D6
:1023200004A10FA0FEF76CBE7047000094000020CF
:1023300004ED00E02E2E5C4672656552544F535CEE
:10234000706F727461626C655C525644535C4152AA
:102350004D5F434D335C706F72742E63000000005C
:102360004572726F723A25732C25640D0A000000C5
:1023700010B5084C606828B940F2811206A111A07E
:10238000FEF73EFE6068401E606001D180F3118858
:1023900010BD0000940000202E2E5C467265655230
:1023A000544F535C706F727461626C655C5256443A
:1023B000535C41524D5F434D335C706F72742E63BA
:1023C000000000004572726F723A25732C25640D6F
:1023D0000A00000070B500282AD0164DA0F10804AC
:1023E0006068E968084205D14FF4A07212A11CA0F0
:1023F000FEF706FE206828B140F241120EA118A097
:10240000FEF7FEFD6068E968084211D02268002AE4
:102410000ED18843606000F06BFA60686968084418
:1024200068602046FFF788FCBDE8704000F03EBFC2
:1024300070BD00007C0000202E2E5C467265655247
:10244000544F535C706F727461626C655C4D656D66
:102450004D616E675C686561705F342E63000000DB
:102460004572726F723A25732C25640D0A000000C4
:1024700006484FF47A710068B0FBF1F14FF0E020AC
:10248000491E4161072101617047000004000020DE
:1024900010B5FDF79FFE104C10280CD300F1E02082
:1024A00090F8F0032178884205D24FF42A720BA1EC
:1024B00015A0FEF7A5FD18480068A16800F4E060CB
:1024C000884207D9BDE810404FF42E7203A10EA038
:1024D000FEF796BD10BD0000940000202E2E5C4635
:1024E00072656552544F535C706F727461626C65B3
:1024F0005C525644535C41524D5F434D335C706FA8
:1025000072742E63000000004572726F723A257378
:102510002C25640D0A0000000CED00E010B5074BFF
:10252000002253F832401CB1521C082AF9D310BDC6
:1025300043F8321003EBC201486010BD0C1A0020B2
:1025400070B515460E460446FFF7D6FE94F94410C2
:102550000020491C01D184F8440094F94510491C1D
:1025600001D184F84500FFF703FFA06B28B92A4684
:10257000314604F1240000F0D1F82046BDE8704057
:10258000FFF706BE10B5040012D00E49096B29B141
:1025900040F2CF420CA111A0FEF732FD00F0A8F9E5
:1025A00000212046FFF7D6F900F080FE002807D171
:1025B0000E494FF080500860BFF34F8FBFF36F8F0D
:1025C00010BD00002C0000202E2E5C467265655266
:1025D000544F535C7461736B732E63004572726F5A
:1025E000723A25732C25640D0A00000004ED00E00A
:1025F00070B50446FFF780FE234D04B92C68201DFA
:10260000FFF720FE58B9E06A204A00EB800152F83B
:10261000211021B901218140286988432861A06ADD
:1026200018B104F11800FFF70DFE686A401C6862DB
:102630002868844207D1211D1548FFF751FE6868BC
:10264000401C686007E0A868401EA8602046FFF7AD
:10265000C1FAFFF7EBFCFFF78BFE6869002812D088
:10266000286884420FD1286B28B140F2654209A145
:102670000DA0FEF7C5FC10494FF080500860BFF375
:102680004F8FBFF36F8F70BD2C0000204C1A0020BD
:10269000081D00202E2E5C4672656552544F535C17
:1026A0007461736B732E63004572726F723A257397
:1026B0002C25640D0A00000004ED00E00149012012
:1026C000C86170472C00002070B50D46040005D18C
:1026D00040F6063207A10CA0FEF792FC0E480168F6
:1026E00020461831FFF7E4FD2846BDE8704001217F
:1026F000FFF730B92E2E5C4672656552544F535C1D
:102700007461736B732E63004572726F723A257336
:102710002C25640D0A0000002C00002070B5144622
:102720000E46050005D140F6313209A10DA0FEF795
:1027300067FC1048016828461831FFF7D1FD0CB13D
:102740004FF0FF3621463046BDE87040FFF702B932
:102750002E2E5C4672656552544F535C7461736BE8
:10276000732E63004572726F723A25732C25640DC7
:102770000A0000002C00002070B5040039D01D4D67
:10278000E06A2968C96A884233D2A069002804DB5C
:102790002868C06AC0F12000A061E06A164E00EB14
:1027A0008000616906EB800081421FD1201DFFF788
:1027B00049FD012150B9E06A00EB800256F8222061
:1027C00022B92A6901FA00F082432A612868C06AA6
:1027D000E0622A6981401143296100EB800006EB29
:1027E0008000211DBDE87040FFF77ABD2868C06AEF
:1027F000E06270BD2C0000204C1A002010B50400CF
:1028000005D140F6C13205A109A0FEF7F9FB0C483D
:10281000016A2160C068606010BD00002E2E5C4619
:1028200072656552544F535C7461736B732E630011
:102830004572726F723A25732C25640D0A000000F0
:102840002C00002030B587B00025039505AA04A907
:1028500003A80495FFF708FDDDE903010095CDE924
:102860000110002315A11748059A00F0ABFB164C88
:10287000E06218B100F08CFD01280AD0401C1AD18A
:1028800007B040F28472BDE8304010A114A0FEF7FA
:10289000B7BB502080F31188BFF34F8FBFF36F8F0A
:1028A0004FF0FF30A06201206061E56007B0BDE835
:1028B000304000F063B807B030BD000049444C45DB
:1028C000000000002D1C00082C0000202E2E5C466D
:1028D00072656552544F535C7461736B732E630061
:1028E0004572726F723A25732C25640D0A00000040
:1028F0000248016B491C0163704700002C00002056
:1029000070B5134D286B10B10120E86170BD002037
:10291000E86128690F4EB0FA80F0C0F11F0000EBAB
:10292000800456F8240028B940F6F6220AA10FA028
:10293000FEF766FB06EB840000F108024168496877
:102940004160914201D149684160C868286070BD0A
:102950002C0000204C1A00202E2E5C467265655219
:10296000544F535C7461736B732E63004572726FC6
:10297000723A25732C25640D0A0000001CB51A4913
:1029800008780190FF20087008788DF800009DF805
:102990000000164A00F0500010700720906007E019
:1029A0009068401E90609DF8000040008DF8000087
:1029B0009DF800000006F3D4107A000200F4E060F5
:1029C0009060019808700A48016841F47001016044
:1029D000016841F070410160FFF74AFD002050603E
:1029E000FDF7C2FB00201CBD00E400E094000020C5
:1029F00020ED00E010B5502080F31188BFF34F8F19
:102A0000BFF36F8F00F038FB18B104494FF08050CE
:102A10000860002080F3118810BD000004ED00E084
:102A20002DE9F843DDF820801C4616460D460700C8
:102A300005D14FF4A97213A117A0FEF7E1FA2CB942
:102A40004FF4AB720FA114A0FEF7DAFA1EB14DB924
:102A50004FF4AD7202E02DB140F25B1209A10EA05D
:102A6000FEF7CEFA542000904CB1012084F84600C5
:102A700043463246294638460094FFF7EBF8204695
:102A8000BDE8F8832E2E5C4672656552544F535C48
:102A900071756575652E63004572726F723A2573A4
:102AA0002C25640D0A0000002DE9FF4F83B09B46E2
:102AB0008A4604004FF0000605D140F2DC4251A1E5
:102AC00055A0FEF79DFABAF1000F07D1206C28B18E
:102AD00040F2DD424BA150A0FEF792FA00F0B8FAA6
:102AE00038B9059828B14FF49C6246A14AA0FEF778
:102AF00087FA4FF000094FF08057DFF82C81FFF77D
:102B0000FBFBA56B45B351462046E668FFF718F876
:102B1000BBF1000F13D0E660606A50B104F12400ED
:102B200000F078FB28B1C8F80070BFF34F8FBFF3F7
:102B30006F8FFFF71DFC012007B0BDE8F08F6D1E01
:102B4000A563206810B9FFF75FFB6060206900286B
:102B5000EFD004F11000E3E7059808B11EB106E0DC
:102B6000FFF706FC27E06846FFF748FE0126FFF75F
:102B7000FFFBFFF7BDFEFFF7BFFB94F94400401CCD
:102B800001D184F8449094F94500401C01D184F8A7
:102B90004590FFF7EDFB05A9684600F0CFF9002846
:102BA00020460AD0FFF7F4FA00F080FB2046FFF73A
:102BB00005F90028A3D00020BEE7FFF7FFF8D8B141
:102BC000206830B9FFF798FB6068FFF7D5FDFFF785
:102BD000CFFB04F124000599FFF776FD2046FFF7AF
:102BE000D7FA00F063FB002889D1C8F80070BFF362
:102BF0004F8FBFF36F8F82E72046FFF7C9FA00F0CF
:102C000055FB7CE72E2E5C4672656552544F535C33
:102C100071756575652E63004572726F723A257322
:102C20002C25640D0A00000004ED00E070B50D468F
:102C3000040005D140F21B121CA121A0FEF7E0F90F
:102C4000FFF75AFBD4E90F20216802FB00116160F5
:102C50000021A1632168A1600A46D4E90F01401E4A
:102C600000FB0121E16021464FF0FF3001F8440FE5
:102C7000487004F110004DB1FFF70CFB04F1240083
:102C8000FFF708FBFFF774FB012070BD21690029E5
:102C9000F8D000F0BFFA0028F4D00D494FF0805072
:102CA0000860BFF34F8FBFF36F8FEBE72E2E5C46AC
:102CB00072656552544F535C71756575652E63007E
:102CC0004572726F723A25732C25640D0A0000005C
:102CD00004ED00E02DE9FF4F83B099468B460400D8
:102CE0004FF0000605D140F2D92252A156A0FEF7BE
:102CF00087F9BBF1000F07D1206C28B140F2DA222E
:102D00004CA151A0FEF77CF9B9F1020F08D1E06B9C
:102D1000012805D040F2DB2246A14BA0FEF770F956
:102D200000F096F938B9059828B140F2DE2241A1A9
:102D300045A0FEF765F94FF0000A4FF08057DFF825
:102D40001881FFF7D9FAA06BE16B884206D3B9F17D
:102D5000020F03D0059800B316B325E04A46594642
:102D60002046FEF700FFA16C21B149462046FFF73F
:102D700033F805E0616A19B104F1240000F04AFA61
:102D800028B1C8F80070BFF34F8FBFF36F8FFFF704
:102D9000EFFA012007B0BDE8F08FFFF7E9FA21E074
:102DA0006846FFF72BFD0126FFF7E2FAFFF7A0FDCB
:102DB000FFF7A2FA94F94400401C01D184F844A022
:102DC00094F94500401C01D184F845A0FFF7D0FAE2
:102DD00005A9684600F0B2F830B12046FFF7D8F9EF
:102DE00000F064FA0020D5E7FFF786FAA06BE16BEC
:102DF000884201D1012500E00025FFF7B9FA95B11D
:102E000004F110000599FFF75FFC2046FFF7C0F9B9
:102E100000F04CFA002894D1C8F80070BFF34F8F2F
:102E2000BFF36F8F8DE72046FFF7B2F900F03EFA4F
:102E300087E700002E2E5C4672656552544F535C46
:102E400071756575652E63004572726F723A2573F0
:102E50002C25640D0A00000004ED00E02DE9F04788
:102E6000984615468946040005D140F29F322AA1B2
:102E70002EA0FEF7C5F8B9F1000F07D1206C28B1DC
:102E80004FF4687224A129A0FEF7BAF8B8F1020F36
:102E900008D1E06B012805D040F2A1321EA123A089
:102EA000FEF7AEF8FFF7F4FA5020EFF3118780F346
:102EB0001188BFF34F8FBFF36F8FA06BE16B884218
:102EC00007D3B8F1020F04D0002087F31188BDE8C2
:102ED000F08794F94560424649462046FEF743FE96
:102EE000701C04D0761C84F845600120EDE7A06CCE
:102EF000012620B141462046FEF76EFF06E0606ADB
:102F00000028F2D004F1240000F084F90028ECD06D
:102F1000002DEAD02E60E8E72E2E5C4672656552E1
:102F2000544F535C71756575652E63004572726F01
:102F3000723A25732C25640D0A00000070B50D4609
:102F4000040005D140F6CB3214A119A0FEF758F8C1
:102F50002DB940F6CC3211A115A0FEF751F8FFF7BC
:102F6000CBF9174AD06829684B1C0FD02368126A26
:102F7000934202D0626882420AD96268801A88420B
:102F800006D2081A28602046FFF738FC002400E02B
:102F90000124FFF7EDF9204670BD00002E2E5C469F
:102FA00072656552544F535C7461736B732E63008A
:102FB0004572726F723A25732C25640D0A00000069
:102FC0002C0000202DE9F04F85B09846DDE90F5424
:102FD0000E9F91468A4683462DB940F2552213A191
:102FE00017A0FEF70DF80026A4B1CDB1022025638D
:102FF00084F859000DF1040C04A800978CE85100E6
:1030000043464A4651465846FEF736FE2046FEF7EE
:10301000D9FC06E040F2562204A109A0FDF7F0FF1A
:103020000496049805B0BDE8F08F00002E2E5C4693
:1030300072656552544F535C7461736B732E6300F9
:103040004572726F723A25732C25640D0A000000D8
:103050000548416919B1006B18B100207047012083
:1030600070470220704700002C0000200148C06813
:10307000704700002C0000202DE9F0412D4F002664
:10308000386B40B1B869401CB861F86900B10126DD
:103090003046BDE8F081FD686D1CFD6011D1786B94
:1030A000006828B140F6D91223A128A0FDF7A8FF97
:1030B000786BB96B7963B863386A401C3862FEF785
:1030C000B5FFB86ADFF89480854209D3786B006851
:1030D00080B1786BC068C468606885420DD2B86200
:1030E0003868C06A00EB800158F821000128CCD96B
:1030F0000126CAE74FF0FF30F1E7201DFFF7A2F8E5
:10310000A06A18B104F11800FFF79CF8E06A0121E9
:103110003A6981401143396100EB800108EB81007D
:10312000211DFFF7DDF8E06A3968C96A8842CDD30E
:103130000126CBE72C0000202E2E5C4672656552DE
:10314000544F535C7461736B732E63004572726FDE
:10315000723A25732C25640D0A0000004C1A0020D9
:1031600070B504004FF000063CD01F4D2868844223
:1031700005D040F6C7621DA121A0FDF741FF206DDB
:1031800028B940F6C96219A11DA0FDF739FF206DCD
:10319000401E2065E26CE16A914223D010BB201DE5
:1031A000FFF750F81A49012250B9E06A00EB80039A
:1031B00051F8233023B92B6902FA00F083432B61C5
:1031C000E06CE062C0F12000A061E06A2B698240FF
:1031D0001A432A6100EB800001EB8000211DFFF7FC
:1031E0007FF80126304670BD2C0000202E2E5C4654
:1031F00072656552544F535C7461736B732E630038
:103200004572726F723A25732C25640D0A00000016
:103210004C1A00202DE9F041C068C4682CB940F672
:10322000613216A11AA0FDF7EBFE04F11800074663
:10323000FFF708F81A4D286B012660B13946194886
:10324000FFF74EF8E06A2968C96A884213D901205D
:10325000EE61BDE8F081201DFEF7F4FFE06A2A6907
:1032600006FA00F1114329610F4900EB800001EBE0
:103270008000211DE4E70020EBE700002E2E5C46D5
:1032800072656552544F535C7461736B732E6300A7
:103290004572726F723A25732C25640D0A00000086
:1032A0002C000020F41C00204C1A00202DE9F047CF
:1032B0002B4D00242746286B28B94FF4FD6229A125
:1032C0002DA0FDF79DFEFFF717F8286B401E286321
:1032D000286BE8BBA8682C490126C8B3A1F52A7958
:1032E0008846D8F80010E9B1D8F80C00C46804F199
:1032F0001800FEF7A7FF201DFEF7A4FFE06A2A6969
:1033000006FA00F11143296100EB800109EB81000D
:10331000211DFEF7E5FFE06A2968C96A8842E0D30B
:10332000EE61DEE70CB1FEF781FEAC693CB1FFF760
:10333000A3FE00B1EE61641EF9D10020A861E86926
:1033400030B11249012738070860BFF34F8F00E002
:1033500001E0BFF36F8FFFF70BF83846BDE8F08749
:103360002C0000202E2E5C4672656552544F535C33
:103370007461736B732E63004572726F723A2573BA
:103380002C25640D0A000000F41C002004ED00E070
:1033900030B587B00024FEF77DFB114D2868B0B131
:1033A00000200390049005AA04A903A8FEF766FF75
:1033B000DDE903211F208DE80700002309A10B4848
:1033C000059AFFF7FFFD686008B1012405E040F2AF
:1033D000331207A10CA0FDF713FE07B0204630BD45
:1033E00068000020546D7220537663006921000844
:1033F0002E2E5C4672656552544F535C74696D6540
:1034000072732E63000000004572726F723A25736A
:103410002C25640D0A0000002DE9FF47DDF830A0DF
:10342000994690460D4606004FF0000705D14FF42F
:10343000D37212A117A0FDF7E3FD1A4C206880B1EA
:10344000CDE900580296062D11DAFFF701FE022899
:103450004FF0000309D0002269462068FFF73AFCCC
:10346000074604B03846BDE8F0875246F4E700232B
:103470004A466946FFF7F2FCF2E700002E2E5C4652
:1034800072656552544F535C74696D6572732E6337
:10349000000000004572726F723A25732C25640D8E
:1034A0000A0000006800002000100020CC34000852
:1034B00000000020A4000000201000087035000863
:1034C000A40000202C280000301000080AD7233C5C
:1034D00000A24A04000000000000000001020304F2
:1034E00006070809020406080000000001020304A0
:1034F00001020304060708090000000000000000A4
:1035000000000000000000000000000000000000BB
:1035100000000000000000000000000000000000AB
:10352000000000000000000000000000000000009B
:10353000000000000000000000000000000000008B
:10354000000000000000000000000000000000007B
:10355000000000000000000000000000000000006B
:1035600000000000AAAAAAAA0000000000000000B3
:04000005080001DD11
:00000001FF
